:020000040800F2
:10000000000001204902000800000000000000007C
:100010007D0200087D0200087D020008000000004B
:100020000000000000000000000000007D02000849
:100030007D020008000000007D0200087D0200082B
:100040007D0200087D0200087D0200087D02000894
:100050007D0200087D0200087D0200087D02000884
:100060007D0200087D0200087D0200087D02000874
:100070007D0200087D0200087D0200087D02000864
:100080007D0200087D0200087D0200087D02000854
:100090007D0200087D0200087D0200087D02000844
:1000A0007D0200087D0200087D0200087D02000834
:1000B0007D0200087D0200087D0200087D02000824
:1000C0007D0200087D0200087D0200087D02000814
:1000D0007D0200087D0200087D0200087D02000804
:1000E0007D0200087D0200087D0200087D020008F4
:1000F0007D0200087D0200087D0200087D020008E4
:100100007D0200087D0200087D0200087D020008D3
:100110007D0200087D0200087D0200087D020008C3
:100120007D0200087D0200087D0200087D020008B3
:1001300000000000000000000000000000000000BF
:1001400000000000000000000000000000000000AF
:10015000000000000000000000000000000000009F
:10016000000000000000000000000000000000008F
:10017000000000000000000000000000000000007F
:10018000000000000000000000000000000000006F
:10019000000000000000000000000000000000005F
:1001A000000000000000000000000000000000004F
:1001B000000000000000000000000000000000003F
:1001C000000000000000000000000000000000002F
:1001D0000000000000000000000000005FF8E0F1F7
:1001E00080B483B000AF134B7B60134B3B607A68E5
:1001F0003B689A420CD007E03B681A1D3A607A6867
:10020000111D796012681A603B680C4A9342F3D35F
:100210000B4B3B6004E03B681A1D3A6000221A60F9
:100220003B68084A9342F6D300BF0C37BD4680BCFA
:10023000704700BF30120008000000202800002096
:100240002800002028000020684620F007018D4685
:1002500089B500AFFFF7C4FF064A074B23F0684398
:1002600023F07F0343F00063936000F0ABF800F0ED
:100270001DF8FEE700ED00E00000000080B400AFD4
:10028000FEE700BF80B483B000AF00237B6002E0D4
:100290007B6801337B607B68034A9342F8D900BFD7
:1002A0000C37BD4680BC70473F4B4C0080B584B0D6
:1002B00000AF7860396000F085F84FF4E13000F06D
:1002C00049F80121402000F031FD4FF48053BB81FB
:1002D0000323BB731023FB7307F10C0319460B4870
:1002E00000F098F90A4800F015F8084B4FF48052D6
:1002F0005A61FFF7C7FFFFF7C5FFFFF7C3FF034BC7
:100300004FF480521A61FFF7BDFFEBE70018014080
:100310001C12000880B582B000AF78607B681B7843
:100320009BB219460A4800F0C1FE00BF40210848B0
:1003300000F03EFF0346012BF8D17B685A1C7A601F
:100340001B78002BEAD100BF0837BD4680BD00BF37
:10035000004C004080B588B000AF786001211020CB
:1003600000F0E4FC01214FF4002000F0EBFC4FF41E
:100370004063BB831823FB770323BB7707F11C0380
:1003800019460E4800F046F97B68FB6000233B826B
:1003900000237B820023BB8200233B830C23FB8250
:1003A00007F10C031946064800F08CFD01210448B2
:1003B00000F008FE00BF2037BD4680BD00100140A0
:1003C000004C004030B400244FF41F053A4B3B4929
:1003D000186882B040F00100186058681A46014061
:1003E0005960196821F0847121F48031196019680D
:1003F00021F480211960596821F4FE0159609D6043
:1004000000940194196841F48031196003E0009B65
:10041000B3F5A06F09D0136803F400330193009B78
:1004200001330093019B002BF1D0234B1B6813F485
:10043000003318BF01230193019B012B06D04FF01D
:1004400000621F4B9A6002B030BC70471D491A4BC6
:1004500008681A4640F010000860086820F00300A1
:100460000860086840F002000860596859605968DF
:100470005960596841F480615960596821F47C11D0
:100480005960596841F4E8115960196841F0807168
:10049000196013689B01FCD55368074923F00303D7
:1004A0005360536843F0020353604B6803F00C033E
:1004B000082BFAD1C3E700BF001002400000FFF88C
:1004C00000ED00E000200240114A536803F00C03E5
:1004D000082B0ED153685168C3F38343C90303F15A
:1004E000020310D5526892030DD40A4A02FB03F3AB
:1004F00000E0084B064A08495268C2F303128A5CBE
:10050000D3400B617047054A02FB03F3F2E700BFDB
:100510000010024000127A000000002000093D0097
:1005200008B52F4B98421ED02E4B984225D02E4B0B
:1005300098422CD02D4B984233D02D4B98423AD034
:100540002C4B984241D02C4B984200D008BD012141
:100550004FF4807000F002FCBDE8084000214FF429
:10056000807000F0FBBB0121042000F0F7FBBDE828
:1005700008400021042000F0F1BB0121082000F018
:10058000EDFBBDE808400021082000F0E7BB012199
:10059000102000F0E3FBBDE808400021102000F02F
:1005A000DDBB0121202000F0D9FBBDE8084000217F
:1005B000202000F0D3BB0121402000F0CFFBBDE89C
:1005C00008400021402000F0C9BB0121802000F03C
:1005D000C5FBBDE808400021802000F0BFBB00BF84
:1005E00000080140000C01400010014000140140CF
:1005F00000180140001C014000200140012108B505
:10060000084600F0ABFBBDE808400021012000F0E7
:10061000A5BB00BF30B4CD78EB0648BF8B7805F0A2
:100620000F0448BF1C430B8813F0FF0F32D0482D36
:10063000026800F08180282D00F0B680D90744BF01
:1006400022F00F022243990744BF22F0F00242EA4F
:100650000412590744BF22F4706242EA04221907C7
:1006600044BF22F4704242EA0432D90644BF22F465
:10067000702242EA0442990644BF22F4700242EA20
:100680000452590644BF22F0706242EA046219061D
:1006900071D40260FF2B30D9282D42682FD0482D0D
:1006A0006CD0D90544BF22F00F0222439D0544BF00
:1006B00022F0F00242EA0412590544BF22F47062AB
:1006C00042EA04221D0544BF22F4704242EA043289
:1006D000D90444BF22F4702242EA04429D0444BF7C
:1006E00022F4700242EA0452590444BF22F07062BC
:1006F00042EA04621D043BD4426030BC7047D90515
:1007000000F1D6809D0500F1CB80590500F1C08035
:100710001D0500F1B580D90400F1AA809D0400F107
:100720009F80590400F194801B04E5D54FF40043E9
:1007300064F31F724361DFE7D90700F1E380990793
:1007400000F1D980590700F1CF80190700F1C58069
:10075000D90600F1BB80990600F1B180590600F17D
:10076000D780190695D5802164F31F72016190E747
:1007700064F31F72C0E764F31F728AE7D90548D497
:100780009D053ED4590534D41D052AD4D9044FD42F
:100790009D0445D4590453D41D04ADD54FF40043F2
:1007A00064F31F720361A7E7D90700F1E28099079C
:1007B00000F1D880590700F1CE80190700F1C480FC
:1007C000D90600F1BA80990600F1B080590600F10F
:1007D000A68019067FF55DAF802164F31F72416129
:1007E00057E74FF4006122F4704242EA043201619B
:1007F000CCE74FF4806122F4706242EA0422016186
:10080000C2E74FF4007122F0F00242EA04120161E3
:10081000B8E74FF4807122F00F0222430161AFE785
:100820004FF4005122F4700242EA04520161B1E730
:100830004FF4805122F4702242EA04420161A7E79A
:100840004FF4804122F0706242EA04620161A3E742
:100850004FF4804122F0706242EA0462416163E732
:100860004FF4005122F4700242EA0452416158E709
:100870004FF4805122F4702242EA044241614DE774
:100880004FF4006122F4704242EA0432416142E7CF
:100890004FF4806122F4706242EA0422416137E73A
:1008A0004FF4007122F0F00242EA041241612CE799
:1008B0004FF4807122F00F022243416122E7202190
:1008C00022F4700242EA0452016147E7102122F447
:1008D000702242EA044201613DE7082122F470429D
:1008E00042EA0432016133E7042122F4706242EAF1
:1008F0000422016129E7022122F0F00242EA0412F7
:1009000001611FE7012122F00F022243016116E776
:10091000402122F0706242EA0462016121E7402135
:1009200022F0706242EA0462416152E7202122F41F
:10093000700242EA0452416148E7102122F4702219
:1009400042EA044241613EE7082122F4704242EA51
:100950000432416134E7042122F4706242EA042245
:1009600041612AE7022122F0F00242EA04124161C9
:1009700020E7012122F00F022243416117E700BF67
:100980004FF6FF710222042301808270C37070470A
:100990008368194214BF012000207047806880B22C
:1009A000704700BFC368194214BF01200020704780
:1009B000C06880B2704700BF0161704741617047F5
:1009C0000AB9416170470161704700BFC16070475B
:1009D00041F48033836181618361836983697047F6
:1009E00010B44FF68074044A13682340194341EA57
:1009F0000011116010BC704700000140014B1860ED
:100A0000704700BF1C0020420028194B00F4401220
:100A1000B4BFDB695B68B2F5401F30B484B21ED04E
:100A2000C20213D50322C0F30345AA4023EA0203FE
:100A300043F0706319B1420D1201944023430C4AF4
:100A40000028B4BFD361536030BC7047420D12011F
:100A500004FA02F223EA020343F07063EAE7044D6A
:100A600023F070636A6822F070626A60E2E700BF98
:100A70000000014010B40F2401F0FC0303F1804397
:100A800003F5803301F003019A6889008C4022EA63
:100A900004029A609A6800FA01F11143996010BC4F
:100AA000704700BF014B1860704700BFDC00204258
:100AB0004FF41F000C4B0D4A196841F001011960F9
:100AC00059680A405A601A6822F0847222F480320F
:100AD0001A601A6822F480221A605A6822F4FE0210
:100AE0005A609860704700BF001002400000FFF895
:100AF0000C4BB0F5803F1A6822F480321A601A68F5
:100B000022F480221A6008D0B0F5802F04D11A6830
:100B100042F4A0221A60704770471A6842F480328B
:100B20001A60704700100240002382B00A4A019305
:100B300002E0B3F5A06F08D0136813F4003F019BE7
:100B400003F101030193019BF3D0034B1868C0F339
:100B5000404002B0704700BF00100240034A1368D3
:100B600023F0F80343EAC000106070470010024011
:100B7000014B1860704700BF00004242034A5368AF
:100B800023F47C1319430143516070470010024065
:100B9000014B1860704700BF60004242034A53682F
:100BA00023F0030318435060704700BF0010024059
:100BB000024B586800F00C00704700BF0010024064
:100BC000034A536823F0F00318435060704700BF96
:100BD00000100240034A536823F4E0631843506056
:100BE000704700BF00100240034A536823F460536B
:100BF00043EAC0005060704700100240044A137876
:100C000019B923EA0000107070471843107070473C
:100C100009100240014B1860704700BFD8004242E3
:100C2000034A536823F4404318435060704700BFA1
:100C3000001002400022064B01281A701A7005D0DD
:100C4000042802D105221A70704770471870704747
:100C500020100240014B1860704700BF80044242E0
:100C6000024A136A18431062704700BF0010024026
:100C7000014B1860704700BF3C044242214A10B447
:100C8000536803F00C03042B06D0082B25D01BB1AE
:100C90001D4A1346026001E01B4B036019491B4AC1
:100CA0004C68C4F30314145DE34043604C68C4F320
:100CB0000224145D23FA04F484604C68C4F3C22453
:100CC000145DE340C360496810BCC1F381310A443C
:100CD000127CB3FBF2F30361704753685168C3F3AE
:100CE0008343C90303F1020307D55268920304D476
:100CF000054A02FB03F30360D0E7054A02FB03F356
:100D00000360CBE70010024000127A0014000020BC
:100D100000093D00044A536919B923EA00005061F3
:100D2000704718435061704700100240044A9369AD
:100D300019B923EA00009061704718439061704729
:100D400000100240044AD36919B923EA0000D061B7
:100D500070471843D061704700100240044AD368BE
:100D600019B923EA0000D06070471843D06070477B
:100D700000100240044A136919B923EA0000106107
:100D8000704718431061704700100240014B186013
:100D9000704700BF40044242014B1860704700BFDB
:100DA0004C004242014B1870704700BF07100240D0
:100DB0004309012B0BD0022B094B00F01F000CBF85
:100DC0001B6A5B6A23FA00F000F001007047044BD5
:100DD00000F01F001B6823FA00F000F001007047CC
:100DE00000100240024A536A43F080735362704716
:100DF00000100240034B9B68184214BF01200020E2
:100E0000704700BF00100240014B1870704700BFD0
:100E10000A10024008B5264B984218D0254B98423C
:100E200021D0254B98422AD0244B984233D0244BD2
:100E3000984200D008BD01214FF48010FFF79AFFBF
:100E4000BDE8084000214FF48010FFF793BF012157
:100E50004FF48040FFF782FFBDE8084000214FF4C7
:100E60008040FFF77BBF01214FF40030FFF782FF86
:100E7000BDE8084000214FF40030FFF77BBF01219F
:100E80004FF48020FFF776FFBDE8084000214FF4C3
:100E90008020FFF76FBF01214FF40020FFF76AFFAA
:100EA000BDE8084000214FF40020FFF763BF00BFFA
:100EB000003801400044004000480040004C004021
:100EC0000050004070B50D460446038ACA889BB2A4
:100ED00023F440531343898903828289AE8822F424
:100EE000B05323F00C031B0428891B0C6A8933437D
:100EF000034313439BB2A381A38A86B09BB223F41E
:100F000040730B4301A8A382FFF7B8FE04991A4867
:100F1000039BA289844208BF0B4612F4004F2A6843
:100F200003EB830314BF5200920003EB8303B3FB74
:100F3000F2F36422114DA189A5FB0360400902FB75
:100F400010330A044FEA00100AD41B013233A5FB08
:100F50000323C3F3431303439BB2238106B070BD45
:100F6000D9003231A5FB0131C1F3421242EA00033C
:100F70009BB2238106B070BD003801401F85EB5144
:100F800000234FF416510C22016042818380C380FC
:100F900003818381704700BF30B40B884D888C88F3
:100FA000028A2B43C988234392B20B4322F4706216
:100FB00013439BB2038230BC704700BF0023036021
:100FC00043607047838929B923F400531B041B0C29
:100FD000838170479BB243F400538381704700BF05
:100FE000012310B401F01F04C1F34211012903FAD7
:100FF00004F30FD002290CBF103014302AB9026854
:1010000010BC22EA030303607047026810BC13435C
:10101000036070470C30F1E7838A9BB21AB923EA68
:10102000010181827047194381827047038A23F04E
:101030000F031B041B0C0382038A9BB2194301821A
:10104000704700BF838923F400631B041B0C83815A
:1010500083899BB219438181704700BF838929B975
:1010600023F002031B041B0C838170479BB243F0E7
:1010700002038381704700BF038A23F020031B040F
:101080001B0C0382038A9BB219430182704700BF85
:10109000038A29B923F480431B041B0C0382704785
:1010A0009BB243F480430382704700BFC1F3080141
:1010B000818070478088C0F30800704783899BB2A5
:1010C00043F0010383817047038BDBB20383038BFF
:1010D0009BB243EA01210183704700BF038B03F4F5
:1010E0007F430383038B9BB219430183704700BF87
:1010F000838A29B923F020031B041B0C83827047C9
:101100009BB243F020038382704700BF838A29B9D2
:1011100023F010031B041B0C838270479BB243F027
:1011200010038382704700BF838A29B923F0080324
:101130001B041B0C838270479BB243F0080383821D
:10114000704700BF838919B9C3F30E0383817047C9
:101150006FEA43436FEA53439BB28381704700BFFA
:10116000838A29B923F400631B041B0C8382704714
:101170009BB243F400638382704700BF838A23F0ED
:1011800004031B041B0C8382838A9BB21943818254
:10119000704700BF838A29B923F002031B041B0C8C
:1011A000838270479BB243F002038382704700BF83
:1011B0000388194214BF012000207047C94389B237
:1011C000018070470123C1F3421210B4012A01F0DB
:1011D0001F0403FA04F315D0022A0CBF028A828A84
:1011E00092B21340028892B24BB10123090A03FA6A
:1011F00001F10A4214BF1846002010BC704718467F
:1012000010BC7047828992B21340EBE70123090AB0
:0C1210008B40DB439BB20380704700BFA3
:10121C0068656C6C6F20776F726C64210D0A00002E
:04122C0000000000BE
:101230000000000000000000010203040607080986
:1012400000A24A040000000001020304010203049A
:08125000060708090204060864
:0400000508000249A4
:00000001FF
