:020000040800F2
:100000000000012021020008F5240008F724000860
:10001000F9240008FB240008FD240008000000006B
:10002000000000000000000000000000FF240008A5
:100030000125000800000000032500080525000830
:10004000C9020008C9020008C9020008C902000864
:10005000C9020008C9020008C9020008C902000854
:10006000C9020008C9020008C9020008C902000844
:10007000C9020008C902000855250008C902000885
:10008000C9020008C9020008C902000807250008C3
:1000900009250008C9020008C9020008C9020008B1
:1000A000C9020008C9020008C9020008C902000804
:1000B000C9020008C9020008C9020008C9020008F4
:1000C000C9020008C9020008C9020008C9020008E4
:1000D000C9020008852500088D260008ED260008C5
:1000E000C9020008C9020008C9020008C9020008C4
:1000F000C9020008C9020008C9020008C9020008B4
:10010000C90200080B250008C9020008C90200083E
:1001100065270008C9020008C9020008C9020008D2
:10012000C9020008C9020008C9020008C902000883
:1001300000000000000000000000000000000000BF
:1001400000000000000000000000000000000000AF
:10015000000000000000000000000000000000009F
:10016000000000000000000000000000000000008F
:10017000000000000000000000000000000000007F
:10018000000000000000000000000000000000006F
:10019000000000000000000000000000000000005F
:1001A000000000000000000000000000000000004F
:1001B000000000000000000000000000000000003F
:1001C000000000000000000000000000000000002F
:1001D000000000000000000000000000000000001F
:1001E0005FF8E0F108B50A4B0A4A9A420DD213466D
:1001F0000948801A20F0030004301044074A52F8DE
:10020000041B43F8041B8342F9D101F01BFC08BD19
:10021000040A002000000020030A002054A1000866
:1002200070B5204B204A9A420BD213461F4AD21A6D
:1002300022F0030204321A44002143F8041B9342C3
:10024000FBD11B4B1B4EF61AB61007D01D460024DF
:1002500055F8043B98470134A642F9D1164B174E86
:10026000F61AB61007D01D46002455F8043B9847EF
:100270000134A642F9D100F0ABFC0646104B114CFC
:10028000E41AA4100BD004F18043013B0C4D05EBA4
:100290008305013C55F804399847002CF9D13046C4
:1002A00002F06CFB60210020040A00205F21002086
:1002B000DC020008E0020008E0020008E00200089A
:1002C000E0020008E0020008FEE7FEE7FEE7FEE7C6
:0C02D000FEE7FEE7FEE7FEE7FEE7FEE7C4
:0402DC00E501000830
:1002E00008B5012001F0ABFB0449CA6802F4E062E2
:1002F000034B1343CB60BFF34F8FFEE700ED00E0ED
:100300000400FA05F0B50A2400273E460C4BDFF83E
:1003100034E003E001360137013C10D0B1FBF3F5C6
:1003200005F13002D2B2825503FB1511AEFB035327
:10033000DB08302AEED1002FECD10026ECE7F0BD2F
:1003400000CA9A3BCDCCCCCCF0B40278302A05D090
:10035000E2B1013001250024234643E0437803F055
:10036000DF03582BF5D18378002B4BD002300022CD
:10037000022558E00A6001200B2D28BF002019E05B
:100380000020F9E7373B46E0002013E000231D463C
:100390000B602F46012063E074B9A2F13006F6B27B
:1003A000092E2DD803EB830302EB4303303B0A2DC8
:1003B00011D90020F0BC70479B020B6001204FE078
:1003C000D4B9A2F13006F6B2092E4DD803EB83035F
:1003D00002EB4303303B10F8012B01346E1C002A62
:1003E000D6D0354627466B2AD6D04B2A35D002F0D8
:1003F000DF064D2EE4D0D0E71B050B6001202FE077
:1004000000202DE00020D5E71201A3F13004E4B272
:10041000092CB7D8303B1A4401350B2DB4D010F855
:10042000013F002BA6D0A3F14104E4B2052CEBD987
:10043000A3F16104E4B2052C06D9A3F13004E4B2BF
:10044000092C9DD81201E5E71201A3F13004E4B2B2
:10045000092C88BF573BDED8DCE7002CACD100204C
:100460000B2F28BF0020A5E70020A3E710B5044606
:100470002021054801F0AAFA20B1034B9B88237084
:10048000012010BD002010BD004C004030B583B0ED
:1004900000238DF80730012801D00A250DE00DF169
:1004A0000700FFF7E3FF0028F9D09DF8070003B02D
:1004B00030BD002CF9D1013DF7D0054C0DF10700FE
:1004C000FFF7D4FF0028F4D1013CF7D1F3E700BFD8
:1004D000A086010038B50146054801F06FFA044DC9
:1004E00080242146284601F071FA0028F9D038BD51
:1004F000004C004010B50446007828B1FFF7EAFF31
:1005000014F8010F0028F9D110BD00002DE9F843BF
:100510000646002401251C4FDFF87C8009E044B129
:100520004046FFF7E7FF013C03E03846FFF7E2FFF4
:1005300000242846FFF7AAFF0D2820D0202813D03A
:100540002E2815D03A2817D00828E8D07F2CECD8D0
:10055000A0F12003DBB25E2BEBD804F1010930558A
:10056000FFF7B8FF4C46E4E70848FFF7C3FF06E093
:100570000748FFF7BFFF02E00648FFF7BBFF002375
:100580003355BDE8F88300BF3C970008749B000812
:100590005C970008609700083897000830B585B070
:1005A0000446104D0AE09DF801309BB12146684693
:1005B000FFF7CAFE98B92846FFF79CFF6846FFF789
:1005C000A5FF9DF80030002BF8D003F0DF03412B8E
:1005D000ECD1E8E70448FFF78DFF002000E00120A0
:1005E00005B030BD789700086497000882B001908C
:1005F0000198C0F30A0313B9C00A02B07047C00AD9
:100600000130FAE770B500F027FF1A4B1B688343EF
:100610002CD0064600F01AFF0446164D28683043D9
:10062000286000F07BFF06462868B0F1FF3F03D04A
:10063000C04300F0F7FF064604F00703072B07D07E
:1006400004F0020104F0040204F0010001F042F899
:10065000042E03D00848FFF74DFF70BD0748FFF791
:1006600049FF0748FFF746FFFFF73AFE0548FFF747
:1006700041FF70BD0C0A0020E89600087C96000837
:100680009C9600081497000838B502680D4B13407B
:10069000B3F1005F0ED104460B48FFF72BFF6368F0
:1006A0000A4A13600A4D2B60206801F0C2F92B68DA
:1006B000984738BD0748FFF71DFF0A2000F004FBEC
:1006C000FFF70EFE0000FE2F989A0008F40F00209E
:1006D000F80F0020B09A000810B582B002AC0023D9
:1006E00044F8043D054803F0B9F92046FFF756FFEA
:1006F000034803F0B3F902B010BD00BFC49A00086C
:100700000C9B000808B51C48FFF7F4FE1B48FFF7D8
:10071000F1FE1B48FFF7EEFE1A48FFF7EBFE1A4802
:10072000FFF7E8FE1948FFF7E5FE1948FFF7E2FE7C
:100730001848FFF7DFFE1848FFF7DCFE1748FFF701
:10074000D9FE1748FFF7D6FE1648FFF7D3FE164826
:10075000FFF7D0FE1548FFF7CDFE1548FFF7CAFE9C
:10076000144B1B681BB91448FFF7C4FE08BD13489F
:10077000FFF7C0FEF7E700BF389800086898000848
:100780008098000898980008B0980008C898000859
:10079000E498000808990008409900087C9900082E
:1007A0009C990008BC990008DC990008FC99000895
:1007B000249A0008080A0020689A0008409A000855
:1007C0002DE9F04186B06E4B1B6803F178431B0B9B
:1007D0006C4A13603D2B41D84FF0FF3202FA03F30D
:1007E000694A136000F038FE674B1B68834314BFEF
:1007F00001220022654B1A60654CFFF783FF012040
:10080000FFF744FE4438112800F2B68001A353F8E4
:1008100020F000BF6708000893080008BD08000822
:10082000050900083F090008450900084B090008B0
:10083000510900085F090008FB0700086F0900085C
:100840007909000879090008790900087509000884
:1008500079090008790900082D0900084FF00042C5
:10086000494B1A60BEE74B48FFF744FE4A48FFF782
:1008700041FE02A8FFF792FE02A8FFF78FFE02A832
:10088000FFF78CFE02A8FFF789FE4448FFF732FE0F
:10089000B3E704250026DFF82C81414F029631464C
:1008A000404603F079F83846FFF724FE6B1E13F03C
:1008B000FF05F3D13B48FFF71DFE9EE73548FFF7E4
:1008C00019FE3948FFF716FE0625302603E06B1E99
:1008D00013F0FF0512D08DF8086058238DF8093009
:1008E0000DF10A00FFF712FE01A902A8FFF72CFD87
:1008F0000028ECD12046FFF7FDFDF1E72B48FFF77C
:10090000F9FD7AE70625DFF8C0800027284E394632
:10091000404603F041F83046FFF7ECFD6B1E13F044
:10092000FF05F4D11F48FFF7E5FD66E700F0F0F89A
:1009300018B92048FFF7DEFD5FE7FFF7D1FC02F0B2
:10094000A9F85AE700F042F857E700F0C9F954E770
:100950001948FFF7CFFD1948FFF796FE4DE70B4BFF
:100960001B68012B7FF449AFFFF74CFE45E7FFF70B
:10097000B3FE42E7FFF7B4FC1148FFF7BBFD3CE7CD
:1009800004100020040A00200C0A0020080A00209D
:10099000789700089097000898970008AC9700088F
:1009A0005C97000838970008D0970008E89700087F
:1009B000609700080C980008989A000800800108C9
:1009C00020980008CC9700080898000810B584B05B
:1009D0001D4A01AB07CA03C31A801C48FFF78AFDF2
:1009E0001B4800F0B9F9041E0EDCB4F1FF3F22D021
:1009F00014F1020F23D014F1030F0CBF1548164851
:100A0000FFF778FD04B010BD1448FFF773FD1448DC
:100A1000FFF770FD214601A8FFF774FC1148FFF7AE
:100A200069FD01A8FFF766FD0F48FFF763FD0F485A
:100A3000FFF760FDE6E70E48FFF75CFDE2E70D48D3
:100A4000FFF758FDDEE700BF309B00083C9B000825
:100A5000100A0020589C0008709C0008789B000831
:100A600008100020CC9B0008D89B0008E49B0008DD
:100A7000FC9B00083C9C00082DE9F047ADF5006D9B
:100A800081468A4616464FF400620021684602F00D
:100A900029FFB9F5006F27D3A9F5006828F4FF688E
:100AA00028F0070806F5006747443446AAEB060617
:100AB0004FF400652A463119684602F09DFE2A4629
:100AC0006946204601F0CCFE04F50064BC42F1D139
:100AD000C9F30A090AF5006AC244B9F1000F05D149
:100AE0000DF5006DBDE8F0873446F6E74FF400657C
:100AF0002A460021684602F0F5FE4A4651466846FD
:100B000002F07AFE2A466946204601F0A9FEE7E790
:100B100070B58AB02122002101A802F0E3FE01F0A5
:100B2000EFFF044601A801F0F1FF02F005F80546C9
:100B300001F0FEFF5CB1064601AA2146012001F04A
:100B4000B7FE50B90A48FFF7D5FC002003E009487A
:100B5000FFF7D0FC00200AB070BD0748FFF7CAFCC1
:100B6000324629462046FFF787FF0120F3E700BF02
:100B70009C9D0008389D0008609D000810B582B05B
:100B80000121102000F088FE01214FF4002000F028
:100B900091FE4FF48063ADF8043018238DF80730D0
:100BA00003238DF80630094C01A9204600F0C2FD50
:100BB0004FF40063ADF8043048238DF8073001A9E5
:100BC000204600F0B7FD02B010BD00BF001001408C
:100BD00010B584B000F02EFC012000F02DFF4FF482
:100BE000E13300930023ADF80430ADF80630ADF8E2
:100BF0000830ADF80C300C23ADF80A30FFF7BEFF1B
:100C00002A4C6946204600F063FE0121204600F090
:100C1000BBFE4021204600F0DFFE01F03BFF01F06B
:100C200055FF234B984205D0224B984218D02048BC
:100C300001F044FF204C2046FFF75CFC1F48FFF703
:100C400059FC2046FFF756FC01F072FF1C4B186060
:100C50000020FFF71BFC732820D1FFF7B1FD1DE03A
:100C6000154C2046FFF746FC1448FFF743FC20468E
:100C7000FFF740FC01F05CFF114B18600020FFF70C
:100C800005FC73280FD0FFF743FFC0B210B90D4821
:100C9000FFF730FC01F020FFFFF722FB084B18683C
:100CA000FFF7F2FCFEE7FFF78BFDECE7004C00409E
:100CB0000012121200212121A09C0008EC9C0008C7
:100CC000FC0F0020909C000882B00190019B2BB18A
:100CD000019B013B0193019B002BF9D102B07047AE
:100CE00008B50F48FFF706FC0120FFF7CFFB61288E
:100CF00003D00C48FFF7FEFB08BD0B4B18681A68C1
:100D0000C2F1006202F50022084900F03DFA18B174
:100D10000748FFF7EFFB08BD0648FFF7EBFB08BDF0
:100D2000B49D0008589C0008FC0F0020EC9D0008B2
:100D3000049E0008309E000838B505460C463CB1BC
:100D40002846FFF793FB013C0128F8D1002038BD6D
:100D50004FF0FF3038BD00002DE9F04FADF2344DBB
:100D6000029000270597A44A1168A44A1160DFF891
:100D7000A8A2DFF884B291464FF00008CDF80480B5
:100D80004FF480110DF11300FFF7D6FF009038BB30
:100D90009DF81330042B5FD00CD8012B2BD0022BE5
:100DA0001ED102238DF828304FF48063039340F264
:100DB000054626E0412B00F01081612B00F00D81EB
:100DC000182B0DD14FF480110DF11300FFF7B4FF74
:100DD00030B99DF81330182B08BF4FF0FF3427D0DF
:100DE0000FB108F10108B8F1050F00F3ED804320C1
:100DF000FFF770FBC4E701238DF8283080230393AD
:100E0000852601244FF4801529460AAB1819FFF7EF
:100E100093FF0028E4D10134A4B2B442F4DB9DF87E
:100E20002A30DB439DF82920DBB29A42D8D1039CBB
:100E3000B4F1FF3F0CD07CB19DF829209DF804301F
:100E40009A420DD01520FFF745FBDDF8008097E7AB
:100E50000620FFF73FFBC9E00620FFF73BFB8BE7CF
:100E6000019B002B72D19DF82B20002A68D0644C86
:100E700018460DF12B030DF22B1500E00B46013047
:100E8000591C04F8012F5A781AB1A942F6D10DF273
:100E90002B1100225B4C225402334A78202A43D083
:100EA0000DF117000199013100F8012F13F8012FFE
:100EB000202A01D01029F6D106A80023435405A901
:100EC000FFF742FA0598B0F5002F2FDAFFF78EFBF7
:100ED0004D4B186000224D4B1A60C0B14C4B1B7833
:100EE000042B14D113464B4D494C2888D9F80020C7
:100EF00003FB002000F0F2FA2070444A136801332B
:100F00001360414A12689A4201D90428EDD00620A4
:100F1000FFF7E0FA4320FFF7DDFA019B013301936D
:100F2000DDF8008001272BE70199C5E71820FFF7BE
:100F3000D1FA1820FFF7CEFA4FF0FF33009355E0B7
:100F40000620FFF7C7FA059B00934FE022460DF1FC
:100F50002B01029D284602F04FFCCAF80050002CDD
:100F600024DDDBF80030D9F80000059A13448342F1
:100F70001CD9009DDAF80030196800F01DFBD9F883
:100F80000000DAF8003001681A68914212D104308A
:100F9000C9F800000433CAF800300435A54205DA68
:100FA000DBF80030059A13448342E3D80620FFF7AC
:100FB00091FAB2E71820FFF78DFA1820FFF78AFAA6
:100FC0006FF00103009311E01820FFF783FA182057
:100FD000FFF780FA0023009308E01820FFF77AFA61
:100FE0001820FFF777FA6FF00203009300980DF2D4
:100FF000344DBDE8F08F00BFFC0F0020041000202E
:101000000710002008100020140E0020100E0020F1
:10101000000000200200002000100020F0B585B084
:1010200005460123037000234370FF238370087873
:10103000002837D0AF1C012340F2011E00E03346E8
:1010400007F8010F9CB211F8010F10B15E1C764534
:10105000F5D12B440021D970116801A8FFF752F98E
:10106000231D9BB29DF80400F8B10022591C89B2DF
:10107000013292B2E85404AB134413F80C0C0B4643
:101080000028F3D182290BD86B18C1F1820292B2E9
:10109000013111440D44002203F8012BAB42FBD176
:1010A00005B0F0BD00231C46D3E71946EAE770B44B
:1010B000B3F5806F25D2802B28BF80239CB20125F9
:1010C0000D7080264A70D2438A709BB2DA1C032AC4
:1010D00008DD0138032310F8015FCD5401339BB2C2
:1010E0009342F8DBA6420AD3E31C9BB2F21C934264
:1010F00005DA1A20C85401339BB29342FADB70BC64
:101100007047B3F5806F28BF4FF480639CB202250F
:101110000D704FF48066D5E741F4807141F22103F0
:101120004000490011F4807F18BF013010F4803F67
:1011300018BF584011F4803FF2D080B2704738B5E4
:101140004518A84210D20446002014F8011B80B2B2
:10115000FFF7E2FFA542F8D1002180B2FFF7DCFFE4
:101160000021FFF7D9FF38BD0020F5E759B138B5A8
:10117000441E4D1EADB2054414F8010FFFF7AAF945
:10118000AC42F9D138BD70472DE9F047ADF5A36DFC
:101190000746019201390DF10F030DF5877011F823
:1011A000012F03F8012F8342F9D101AA04A944A811
:1011B000FFF734FF0024832605E09DF80C30062B52
:1011C0001BD0092C25D8314644A8FFF7CFFF80213A
:1011D0000DF21310FFF7B3FF0546C0F30720FFF72A
:1011E00079F9E8B2FFF776F942F2107103A8FFF738
:1011F000A3FD0028E1D00134E3E7092C09D8DDF88C
:101200000480B8F1000F53D04FF0010ADFF88C9141
:1012100043E06048FFF76EF9E0B2B2E0092C47D92D
:10122000E0B2AEE001340A2CFAD0B8F5806F2CBFE2
:101230004FF480658025E91C44A8FFF797FF2946F5
:101240000DF21310FFF77BFF0646C0F30720FFF7F0
:1012500041F9F0B2FFF73EF9494603A8FFF76CFDEC
:101260000028DFD19DF80C30062BDBD14545D5D2C7
:101270002F44A8EB0508484B1B68C3F1006303F536
:101280000023BAEB932F7BD00AF1010A1FFA8AFAE6
:10129000092CC5D8B8F1000F0AD043465FFA8AF28C
:1012A00044A93846FFF703FF00248DF80C40BCE743
:1012B00000248DF80C40042642F2107502E001343F
:1012C0000A2C25D03046FFF705F9294603A8FFF779
:1012D00033FD0028F3D19DF80C30062BEFD1092CFB
:1012E00016D800238DF80C3001228DF810218DF8CE
:1012F0001131FF238DF812310DF589730DF5C97188
:10130000002203F8012F8B42FBD10024832607E043
:10131000E0B236E09DF80C30062B1BD0092C2DD8FE
:10132000314644A8FFF722FF80210DF21310FFF78A
:1013300006FF0546C0F30720FFF7CCF8E8B2FFF739
:10134000C9F842F2107103A8FFF7F6FC0028E1D0BB
:101350000134E3E7092C11D80420FFF7BBF842F26F
:10136000107103A8FFF7E8FC18B99DF80C30062BA4
:101370000BD00134092C0AD9E0B202E0E0B200E05F
:10138000FF200DF5A36DBDE8F0870020F9E70020F0
:10139000F7E700BF549E0008FC0F0020A086010064
:1013A00008B503460C4A12685AB10B4A1068033359
:1013B00023F003030344094A934206D8064A136004
:1013C00008BD0749044A1160EFE701F0B9FB0C239F
:1013D00003604FF0FF3008BD180E002000F8002019
:1013E00060210020012807D110B514460846114697
:1013F00001F0F8F8204610BD4FF0FF30704731B9CA
:10140000036823F001031B041B0C0360704703688F
:1014100043F00103036070474160704710F0805F44
:1014200014BF024B024B5860704700BF00040240DB
:1014300000000240034B044A5A6002F188325A60AD
:10144000704700BF0020024023016745014BD86967
:101450008008704700200240014B186A704700BFA7
:1014600000200240024BD869C0F34000704700BF23
:1014700000200240014BD860704700BF00200240AE
:101480000B4BDB6813F0010F0FD1094BDB6813F036
:10149000040F01D002207047054BDB6803F01003F6
:1014A000002B14BF0320042070470120704700BFA9
:1014B0000020024010B50446FFF7E2FF012809D1E1
:1014C00034B1FFF7DDFF013C012803D1002CF8D136
:1014D000052010BD002C08BF052010BD38B50546FD
:1014E0004FF43020FFF7E6FF042800D038BD0A4C47
:1014F000236943F0020323616561236943F04003DC
:1015000023614FF43020FFF7D5FF236923F0020356
:10151000DB04DB0C2361E9E70020024010B5FFF794
:10152000A1FF00280CBFA52400244FF43020FFF7B2
:10153000C1FF042800D010BD1C4B1D4A9A6002F167
:1015400088329A601A6942F020021A611A6942F0E0
:1015500040021A614FF43020FFF7ACFF042809D095
:101560000528E8D0114A136923F01003DB04DB0CD3
:101570001361E0E70D4B1A6922F02002D204D20C6D
:101580001A611A6942F010021A610A4B1C804FF46A
:101590000050FFF78FFF0528CDD0044A136923F0D0
:1015A0001003DB04DB0C136110BD00BF0020024000
:1015B0002301674500F8FF1F30B583B005460C4690
:1015C000002301934FF40050FFF774FF042801D06B
:1015D00003B030BD124A136943F001031361A3B293
:1015E0002B804FF40050FFF765FF042807D00C4A0A
:1015F000136923F00103DB04DB0C1361E8E7023518
:101600000195019B240C1C804FF40050FFF752FF02
:10161000034A136923F00103DB04DB0C1361D7E7F2
:101620000020024038B505464FF40050FFF742FF56
:101630000446042801D0204638BDED43E9B2224BD0
:10164000224A9A6002F188329A601A6942F01002C6
:101650001A61FF2912D01E4B19814FF40050FFF779
:1016600029FF04280AD005282CD0174A136923F033
:101670001003DB04DB0C13610446DCE7C5F307232E
:10168000FF2B07D0124A53814FF40050FFF712FF8F
:101690000428E8D1C5F30743FF2B07D00C4A9381F8
:1016A0004FF40050FFF706FF0428DCD12D0EFF2D6C
:1016B00006D0074BDD814FF40050FFF7FBFED2E769
:1016C0002046D2E70446B6E70020024023016745E2
:1016D00000F8FF1F70B506460D461446124B134A1C
:1016E0009A6002F188329A604FF40050FFF7E2FEF0
:1016F000042800D070BD0C4A136943F01003136135
:1017000046F0F80635432C43094B5C804FF40050FB
:10171000FFF7D0FE0528EDD0034A136923F010032C
:10172000DB04DB0C1361E5E7002002402301674581
:1017300000F8FF1FF0B5CB7803F00F0713F0100F80
:101740001CBF8B781F430B78FBB105680023012673
:101750004FF00F0C03E042610133082B14D006FA5E
:1017600003F20C8832EA0404F6D19C000CFA04FE61
:1017700025EA0E0507FA04F42543CC78282CEAD094
:10178000482C08BF0261E7E705600B88FF2B22D9D0
:101790004668002208234FF0010E4FF00F0C03E0C3
:1017A00001330432102B15D00EFA03F40D8834EAFD
:1017B0000505F5D10CFA02F526EA050607FA02F549
:1017C0002E43CD78282D08BF4461CD78482D08BF21
:1017D0000461E5E74660F0BD0AB941617047016107
:1017E0007047000010B4274B5B6803F00C03042B18
:1017F0002BD0082B2CD013B1234B036001E0224BDC
:10180000036020494B68C3F30313204CE35CDAB256
:101810000368D34043604A68C2F30222A25CD2B29A
:1018200023FA02F282604A68C2F3C222A25CD2B2F8
:10183000D340C3604A68C2F3813215498A5CD2B290
:10184000B3FBF2F3036110BC70470F4B0360D8E7A2
:101850000C4A53685268C3F38343023312F4803F47
:101860000AD0084A526812F4003F14BF094A064AD7
:1018700002FB03F30360C4E7064A02FB03F30360C1
:10188000BFE700BF0010024000127A0008000020ED
:101890000400002000093D0029B9054A936923EAA4
:1018A000000090617047024A936918439061704745
:1018B0000010024029B9054AD36923EA0000D0612B
:1018C0007047024AD3691843D06170470010024044
:1018D00030B587B004460D46038A9BB223F44053CB
:1018E000CA881343038283899BB223F4B05323F045
:1018F0000C038A8813430A8913434A8913439BB212
:101900008381838A9BB223F440738A891343838241
:1019100001A8FFF767FF1A4B9C420CBF049B039B77
:10192000A28912F4004F03EB830303EB83032968BE
:1019300014BF49008900B3FBF1F1124BA3FB012353
:1019400058090501642300FB1313A28912F4004F08
:101950000BD11B0132330B4AA2FB0323C3F3431306
:101960002B439BB2238107B030BDD9003231054AE9
:10197000A2FB0131C1F3421242EA0503F1E700BFC5
:10198000003801401F85EB5131B9838923F400539E
:101990001B041B0C8381704783899BB243F4005363
:1019A000838170472AB9838A9BB223EA010181822D
:1019B0007047838A9BB2194381827047C1F3080143
:1019C000818070478088C0F30800704703881942FF
:1019D00014BF012000207047C94389B201807047BD
:1019E00010B4C1F3421201F01F040123A340012AE5
:1019F00012D0022A0CBF028A828A92B21340028855
:101A000092B26BB1090A012303FA01F10A4214BF31
:101A10001846002010BC7047828992B21340EEE74E
:101A20000020F7E70B0A01219940C94389B20180E0
:101A3000704780F30888704780F31088704780F300
:101A40001388704782B03C4B1A6842F001021A605A
:101A500059683A4A0A405A601A6822F0847222F49D
:101A600080321A601A6822F480221A605A6822F4BE
:101A7000FE025A604FF41F029A6000220092019207
:101A80001A6842F480321A601A46136803F400336D
:101A90000193009B01330093019B1BB9009BB3F59D
:101AA000A06FF2D1244B1B6813F4003F14BF012335
:101AB00000230193019B012B05D04FF00062204BC6
:101AC0009A6002B070471F4B1A6842F010021A6009
:101AD0001A6822F003021A601A6842F002021A60C1
:101AE000A3F580535A685A605A685A605A6842F49B
:101AF00080625A605A6822F47C125A605A6842F432
:101B0000E8125A601A6842F080721A601A46136826
:101B100013F0007FFBD0084B5A6822F003025A6092
:101B20005A6842F002025A601A46536803F00C03E6
:101B3000082BFAD1C1E700BF001002400000FFF8F7
:101B400000ED00E0002002402DE9F04F8BB0D1F80D
:101B500000A0D64A524403681A448368C4686340AC
:101B600044682340C46863401344426802EB7363D3
:101B70004A681446CE4A00942244C5682A444568FF
:101B8000866875401D407540154403EB35558E68D9
:101B9000C84A0196324487683A44476887EA030492
:101BA0002C407C40144405EBF434CA68C24E0292C7
:101BB00016443E4483EA050222405A40324404EB74
:101BC000B2220F69BD4E03973E441E4485EA0403CA
:101BD00013406B40334402EB73634F69B84E049774
:101BE0003E442E4484EA02051D406540354403EB23
:101BF00035558E693746B34E05973E44264482EAF2
:101C000003042C405440344405EBF434D1F81C90C8
:101C1000AD4E4E44164483EA050222405A403244F7
:101C200004EBB2220E6A3746A84E06973E441E4485
:101C300085EA040313406B40334402EB73634E6A3E
:101C40003746A34E07973E442E4484EA02051D40C2
:101C50006540354403EB35558F6A0897A7F524474F
:101C60004F3F274482EA03042C4054403C4405EB98
:101C7000F434CE6A974F09963744174483EA050235
:101C800022405A403A4404EBB222D1F830C0924F7D
:101C900067441F4485EA040313406B403B4402EB56
:101CA00073634F6BDFF884E2BE44754484EA020E2E
:101CB0000EEA030E8EEA040E754403EB3555D1F897
:101CC0003880DFF86CE2C644A64482EA03042C4064
:101CD0005440744405EBF434D1F83CE07F4971443E
:101CE000114483EA050222405A400A4404EBB2221E
:101CF0007B49009E3144194484EA02032B4063402F
:101D00000B4402EBF3637749059E31440D4482EAAC
:101D1000030121405140294403EBF151724D099ECA
:101D20003544254483EA010414405C402C4401EB13
:101D3000B4446E4D5544154481EA04021A404A40A9
:101D40002A4404EB32326A4D049E35441D4484EA31
:101D500002030B4063402B4402EBF363654D089E86
:101D600035440D4482EA030121405140294403EBEC
:101D7000F151614D7544254483EA010414405C40EF
:101D80002C4401EBB4445D4D039E3544154481EA77
:101D900004021A404A402A4404EB3232584D079E4E
:101DA00035441D4484EA02030B4063402B4402EB9C
:101DB000F363544D45440D4482EA030121405140F0
:101DC000294403EBF151504D029E35442C4483EAE3
:101DD000010515405D402C4401EBB4444B4D069E7B
:101DE00035442A4481EA04051D404D402A4404EB51
:101DF0003232474D3D442B4484EA02050D40654094
:101E00002B4402EBF363434D019E3544294482EA9F
:101E1000030525405540294403EBF1513E4D4D4407
:101E20002C4483EA010515405D40254401EBB5458E
:101E300081EA0504DFF8FCB0E344934403EA0402BA
:101E40004A405A4405EB3232049EA6F5B82BABF259
:101E5000BE6B5B445440234402EB33732F4C069E0D
:101E600034440C4485EA02015940214403EB71518A
:101E70002B4C099E3444254482EA03044C402544FB
:101E800001EB3545274C4444144483EA01026A407F
:101E9000224405EB7222244C009E34441C4481EA07
:101EA00005035340234402EB337345E078A46AD71B
:101EB00056B7C7E8DB702024EECEBDC1AF0F7CF56E
:101EC0002AC68747134630A8019546FDD8988069F1
:101ED000AFF7448BBED75C892211906B2108B449BF
:101EE00062251EF640B340C0515A5E26AAC7B6E925
:101EF0005D102FD65314440281E6A1D8C8FBD3E766
:101F0000E6CDE121D60737C3870DD5F4ED145A4548
:101F100005E9E3A9F8A3EFFCD9026F6781F67187A1
:101F200022619D6D0C38E5FD44EABEA4937198FDD5
:101F30008E4379A68A4C2A8D8D4C039E34440C44E2
:101F400085EA02015940214403EB7151894C4C440C
:101F5000254482EA03044C402C4401EB3444864D72
:101F6000089E3544154483EA010262402A4404EB8A
:101F70007222824D3D441D4481EA040353402B44A8
:101F800002EB33737E4D5544294484EA02055D40DB
:101F9000294403EB71517B4D029E3544254482EA6E
:101FA00003044C402C4401EB3444774D059E3544EA
:101FB0002A4483EA01056540154404EB7525734AFC
:101FC000079E3244134481EA04026A401A4405EB36
:101FD00032726F4B63440B4484EA0501514019444B
:101FE00002EB71516B4B73441C4485EA02034B4076
:101FF0001C4401EB3444684B019EB34633441D44FA
:1020000082EA010363402B4404EB7323634D554480
:102010002A4463EA010A8AEA040A524403EBB262E0
:102020005F4D4D44294462EA040989EA03094944A1
:1020300002EBB1515B4D45442C4461EA030888EA48
:102040000208444401EB7444574D049E35442B442C
:1020500064EA020888EA0108434404EBF323534D81
:1020600065442A4463EA010C8CEA040C624403EBE5
:10207000B2624F4D029E3544294462EA040C8CEA58
:10208000030C614402EBB151089DA5F58016A6F63C
:102090008336264461EA03045440344401EB74441B
:1020A000444D009E35442B4464EA02064E403344BE
:1020B00004EBF323404D069E35442A4463EA0106AF
:1020C0006640324403EBB2623C4D7544294462EAF7
:1020D00004065E40314402EBB151394D059E354452
:1020E0002C4461EA03065640344401EB7444354DF8
:1020F0003D441D4464EA02034B402B4404EBF323AC
:10210000314D039F3D44154463EA010262402A4475
:1021100003EBB2622D4D099F3D440D4462EA040178
:102120005940294402EBB151294DDE465D44254416
:1021300061EA030454402C4401EB7444254E079F8C
:102140003E441E4464EA020585EA01039D190368C2
:102150001A4402604368234403EBF5234360836819
:102160001C448460C3681944C1600BB0BDE8F08FA3
:10217000A9CFDE4B604BBBF670BCBFBEC67E9B28B2
:10218000FA27A1EA8530EFD4051D880439D0D4D9C7
:10219000E599DBE6F87CA21F6556ACC4442229F41D
:1021A00097FF2A43A72394AB39A093FCC3595B65DF
:1021B00092CC0C8FD15D84854F7EA86FE0E62CFE1B
:1021C000144301A3A111084E827E53F735F23ABDA4
:1021D000BBD2D72A91D386EB002343600360084B20
:1021E000836003F18833C36003F12943A3F5961399
:1021F000A3F68B630361A3F188334361704700BF8B
:10220000012345672DE9F04190B006460D4601686F
:10221000C1F3C50301EBC200814202D971680131EB
:1022200071603060716801EB52717160AF180FAC72
:1022300006F1080805E069464046FFF785FC0022E4
:102240001346BD4219D05A1C15F8011B33441976A8
:10225000402AF5D13246ADF10401D07E937E1B04B5
:1022600043EA0063107E0343507E43EA002341F8B3
:10227000043F0432A142F0D1DDE710B0BDE8F081A7
:1022800030B591B0044602680E9243680F93C2F3D2
:10229000C502372AD4BFC2F13802C2F17802174909
:1022A000FFF7B0FF2246ADF104010DADD07E937E65
:1022B0001B0443EA0063107E0343507E43EA00237D
:1022C00041F8043F0432A942F0D104F108056946FF
:1022D0002846FFF739FC2846183450F8043B80F8AC
:1022E0004C301A0A80F84D201A0C80F84E201B0E34
:1022F00080F84F30A042F0D111B030BD180000205E
:10230000D0F80432D0F80002181A00F500704342E9
:10231000C0F30800C3F3080358BF5842704710B415
:10232000D0F80432D0F8004201335A42C3F3080314
:10233000C2F3080258BF5342A34210D0D0F804326F
:1023400001335A42C3F30803C2F3080258BF534291
:10235000C0F80432D0F80432C15410BC7047D0F831
:10236000003201335A42C3F30803C2F3080258BFD4
:102370005342C0F80032E1E7D0F80022D0F804322E
:102380009A4211D0D0F8003201335A42C3F3080305
:10239000C2F3080258BF5342C0F80032D0F80032EE
:1023A000C35C0B7001207047002070472DE9F04797
:1023B000171ED8BF00243CDD80460D469A464FF0DC
:1023C0000109002421E00134A7422CD0A64212D0FA
:1023D00029464046FFF7D0FF0028F4D00135F2E748
:1023E0001AF1000018BF012000F075F8CA4520D38B
:1023F000A74208DC1DE01AF1000018BF012000F020
:102400006AF8CA4515D309F101094046FFF778FF7C
:102410000028E5DDB842A8BF3846A74203DD002802
:10242000E9DD0619D4E71AF1000018BF012000F019
:1024300052F82046BDE8F087C3B2092B2BD870B400
:10244000194B93F90060B04228D003F1900593F93D
:102450001040844225D01033AB42F8D1B6F1FF3F93
:102460000ED00123104E1D461C01A457B4F1FF3FAE
:1024700007D001330A2BF6D14FF0FF3070BC704704
:102480000025094C2D01631900265E6099605E707D
:10249000DA606055F2E74FF0FF3070474FF0FF30E1
:1024A000ECE74FF0FF30E9E71C0E002010B40023EA
:1024B0000549FF245A56824208BF5C541033A02BB2
:1024C000F8D110BC704700BF1C0E00200138B0F1DD
:1024D000FF3FFBD170474FF6FF7242F6E16104E027
:1024E0000B46013B9BB2002BFBD1013880B29042DE
:1024F000F6D170477047FEE7FEE7FEE7FEE770475C
:1025000070477047704770477047704708B502467C
:1025100040210248FFF760F908BD00BF00140140E8
:1025200010B5074C012202212046FFF755F9012082
:10253000FFF7CCFF002202212046FFF74DF910BD26
:102540000008014008B50120FFF7E0FF0320FFF776
:10255000ADFF08BD08B54FF40050FEF75FFF002245
:1025600080210548FFF71EFA00210448FEF747FFC7
:102570000022034B1A7008BD00380140440002409D
:10258000BC0F002010B540F225511348FFF728FA80
:10259000012806D008211048FFF718FA01280ED0AC
:1025A00010BD0D4C40F225512046FFF73BFA204666
:1025B000FFF708FAC1B20948FFF7B1FEEAE7084899
:1025C00001F04CFA044C08212046FFF705FA20469A
:1025D000FFF7F8F9E4E700BF003801402C170020AE
:1025E000689E00082DE9F04706460C46224B1B6802
:1025F00013F0800F15D1002911DD47181F4C40251D
:1026000029462046FFF7E2F90028F9D016F8011B09
:102610002046FFF7D3F9B742F2D1BDE8F087BDE815
:10262000F087DFF85C90DFF85CA0DFF85C8099F958
:102630000030002BFDD1012789F800702546B4F544
:10264000807FA8BF4FF480752A463146504601F07E
:10265000D3F8641B2E443A4680210848FFF7A2F9BC
:10266000A9B24046FEF7D8FE39464046FEF7C7FEFF
:10267000002CDCDCBDE8F087143801400038014054
:10268000BC0F0020BC0E00204400024010B540F2F8
:1026900025511348FFF7A4F9012806D00821104856
:1026A000FFF794F901280ED010BD0D4C40F22551D2
:1026B0002046FFF7B7F92046FFF784F9C1B2094871
:1026C000FFF72DFEEAE7084801F0C8F9044C08219D
:1026D0002046FFF781F92046FFF774F9E4E700BFD1
:1026E0000044004020150020789E000810B540F2FC
:1026F00025511848FFF774F9012806D0082115481C
:10270000FFF764F9012819D010BD124C40F2255191
:102710002046FFF787F92046FFF754F9C1B20E486B
:10272000FFF7FDFD0020FFF7F1FE0320FFF7BEFEDF
:102730000A4A02210320FFF77FFEDFE7084801F085
:102740008DF9044C08212046FFF746F92046FFF793
:1027500039F9D9E700480040141300204525000846
:10276000889E000810B540F225511348FFF738F94C
:10277000012806D008211048FFF728F901280ED0BB
:1027800010BD0D4C40F225512046FFF74BF9204675
:10279000FFF718F9C1B20948FFF7C1FDEAE7084899
:1027A00001F05CF9044C08212046FFF715F920469A
:1027B000FFF708F9E4E700BF004C004008110020D3
:1027C000889E000808B5FFF7ABFE08BD08B50328D2
:1027D00013D8DFE800F002060A0E0948FFF7E6FD0D
:1027E00008BD0848FFF7E2FD08BD0748FFF7DEFD1A
:1027F00008BD0648FFF7DAFD08BD002008BD00BF90
:102800002C17002020150020141300200811002090
:1028100070B582B005460C4600230193FEF70AFE10
:10282000E40A01943520FEF725FE019BA3B10B4B72
:102830001B78DBB2042B0FD10024084E2846FEF78C
:102840004DFE30700134019BA34205D93378DBB2D1
:1028500005F50065042BF1D002B070BD58000020D2
:1028600070B504460D46164691B2FFF7D1FFFFF74B
:10287000A9FF2644B4420CD2043D55F8041F20465B
:10288000FEF79AFE0434A64203D90428F5D00020AE
:1028900070BDA64207D1054B1878C0B2042814BFFA
:1028A0000020012070BD002070BD00BF5800002036
:1028B0002DE9F041ADF5096D0D46904668220021E5
:1028C0000DF6280001F00EF8212200210DF604007B
:1028D00001F008F84FF40062002101A801F002F8AD
:1028E00000F02AF906460DF62800FFF775FC9DB1A9
:1028F0002C46B5F5006F28BF4FF4006422463146E0
:1029000001A800F079FF224601A90DF62800FFF783
:1029100079FC26442D1BEBD10DF62800FFF7B0FC07
:102920004FF40062002101A800F0DCFF0DF50865FE
:1029300001AC0DF50967104E15F8012B3146204604
:1029400001F0A6F80234BD42F6D10DF6040401AD43
:102950000FCD0FC495E80F0084E80F0020224146F8
:102960000DF6040000F018FFB0FA80F040090DF5F4
:10297000096DBDE8F08100BF989E000808B50422EB
:1029800002490120FEF72EFDFEE700BFA09E0008D1
:102990004FF0FF3070474FF400534B6000207047FA
:1029A000022804D90922034B1A6000207047012035
:1029B000704700BF5C2100200020704700284DD1E7
:1029C0002DE9F04F85B08046002A42DD0190914606
:1029D0008A46DFF8A4B0254C20271EE03946204661
:1029E000FEF7F4FF0028F9D02046FEF7EBFF8DF844
:1029F0000F009DF90F300AF80830082B1ED00A2B63
:102A00001FD00D2B1DD001220DF10F011046FEF736
:102A1000E9FC08F10108C14518DDDBF8003013F0CE
:102A2000200FDBD001260025334632460DF10F0181
:102A30002846FFF7CBFE0028F6DDDAE7A8F102080A
:102A4000E1E702220A490120FEF7CCFCB8F1000FB1
:102A50000ADB08F1010005B0BDE8F08F0922054B43
:102A60001A604FF0FF3070470198F4E700380140DA
:102A70008C9700085C2100200C38014008B54FF409
:102A8000006202490248FFF7EBFE08BD381900203A
:102A90000080070838B5074C4FF400652A4600212E
:102AA000204600F01FFF2A460349204600F0A4FEFE
:102AB00038BD00BF381900200080070808B5024B58
:102AC0001860FFF7DBFF08BD38190020014B1868BC
:102AD000704700BF3819002008B5064B1868064A31
:102AE000064B904218BF1346024A1360FFF7C6FF19
:102AF00008BD00BF38190020001212120021212148
:102B0000014B5868704700BF3819002030B40546A3
:102B1000064C0FCC28606960AA60EB600FCC28617E
:102B20006961AA61EB6130BC704700BF40190020A9
:102B30000048704700000108004870470000030883
:102B4000014B1868704700BF5C00002070B559B198
:102B500005460C4610B1836B002B3CD0636ED80742
:102B600005D5B4F90C302BB90026304670BDA389C9
:102B700099053CD52146284600F04AF8E36A064606
:102B800033B1E169284698470028B8BF4FF0FF36B7
:102B9000A3891A0622D4216B41B104F14003994262
:102BA00002D0284600F0B4F900232363616C21B100
:102BB000284600F0ADF90023636400F04DF90022CF
:102BC000636EA281DB070ED5A06D00F0C5FA00F0A0
:102BD00049F9304670BD00F00FF9BFE7216928467A
:102BE00000F096F9D7E7A06D00F0BAFAECE7A06D17
:102BF00000F0B4FAB4F90C30002BBBD1666E16F0BD
:102C00000106B1D1A06D00F0ABFA304670BD00BF37
:102C1000B1F90C302DE9F0419AB20D46110780460A
:102C20003AD46A6843F40063002AAB8170DDAC6A71
:102C3000002C4AD000229BB2D8F80060C8F80020CF
:102C400013F4805268D02A6D5F0705D569682B6B35
:102C5000521A0BB1EB6BD21A0023E9694046A04728
:102C6000441C3DD00021B5F90C302A6923F40063DF
:102C7000AB81DB0469602A6048D4296BC8F8006026
:102C800019B305F14003994202D0404600F040F9E3
:102C900000202863BDE8F0812E69B6B1910718BF06
:102CA00000232C6808BF6B692E60A41BAB600AE090
:102CB000234632466F6AE9694046B8470028A4EBCC
:102CC0000004064404DD002CF2DC0020BDE8F081A5
:102CD000AB894FF0FF3043F04003AB81BDE8F0819A
:102CE000D8F800401D2CF3D8164BE340DB4313F01B
:102CF0000103EDD1B5F90C20296922F40062AA8103
:102D0000D2046B602960B8D5002CB6D12865B4E731
:102D1000EA6B002A8BDCD8E70123E9694046A0472B
:102D2000431C024602D0AB89AC6A8DE7D8F800306C
:102D3000002BF8D01D2B01D0162BC9D1C8F800608C
:102D4000C3E700BF0100402038B50D46044608B176
:102D5000836BBBB1B5F90C0088B16B6EDB0701D496
:102D6000810517D520462946FFF752FF6B6E0446B2
:102D7000DA0702D4AB899B0507D5204638BD044647
:102D8000204638BD00F038F8E4E7A86D00F0E8F917
:102D9000204638BDA86D00F0E1F9E3E7014900F0F5
:102DA000B1B900BF4D2B0008002310B50446818146
:102DB000C281036043608360436603614361836152
:102DC000194608225C3000F08DFD07480749084A83
:102DD000084B2062E4616162A262E36204F1580080
:102DE000BDE8104000F0B6B9DD3A0008013B00082C
:102DF0003D3B00085D3B000810B50446144800F058
:102E0000ADF9A26BFAB90320124904F53B73C4F87B
:102E1000E832C4F8E022C4F8E402E1636068042107
:102E2000FFF7C2FFA06801220921FFF7BDFFE0689C
:102E300002221221FFF7B8FF01230548A363BDE872
:102E4000104000F08DB90248BDE8104000F088B98C
:102E5000442100209D2D0008014800F07FB900BFEB
:102E600058210020014800F07BB900BF5821002004
:102E7000F8B50C46234F064600F082FDBB68C4F54A
:102E80007E615D680F3125F00305294421F47F61DF
:102E900021F00F01A1F58054B4F5805F07DB00211C
:102EA000304600F0E3FDBB682B44984204D0304626
:102EB00000F06CFD0020F8BD6142304600F0D6FD08
:102EC00001300DD0104BBA6819682D1B45F0010573
:102ED0003046091B5560196000F058FD0120F8BD0F
:102EE0000021304600F0C2FDBA68831A0F2BDEDDE8
:102EF000064C0549246843F00103001B5360086039
:102F0000D5E700BF88040020C00F002090080020F3
:102F1000002944D02DE9F0410D46804600F030FDF7
:102F200055F8047C6949A5F1080427F00103E2186B
:102F30008E685068B24220F003005ED0FE075060F9
:102F40000BD455F8087C01F1080EE41BA5683B443E
:102F500075456DD0E768EF60BD6015186D68ED07C9
:102F60003ED543F001026260E350B3F5007F17D213
:102F70000122DB0898104D68134451F833708240E9
:102F800001EBC3002A430838E060A7604A6041F8BB
:102F90003340FC604046BDE8F04100F0F7BC7047AC
:102FA0005A0A042A52D89A0902F13907FF0002F19D
:102FB0003805C819CA59083890424FD0516821F0D5
:102FC00003018B4232D292689042F7D1C368A0606D
:102FD000E3609C60C4604046BDE8F04100F0D6BCB0
:102FE00095683B4F0344BD4240D0D06843F0010296
:102FF000E86085606260E350B7E7FF07034407D4E9
:1030000055F8085C641BE268A0682B44C2609060BD
:10301000304A43F001001268606093428C60B9D37B
:103020002D4B40461968FFF723FFB3E71046CDE765
:1030300011184968C90744D491680344D26843F021
:103040000100CA6091606060E350A3E7142A16D8BB
:1030500002F15C07FF0002F15B05AAE70123AA1059
:103060004D6893402B434B600346B0E743F00102A9
:103070004C610C61E560A5606260E3508AE7542A08
:1030800006D81A0B02F16F07FF0002F16E0590E7F8
:10309000B2F5AA7F06D8DA0B02F17807FF0002F139
:1030A000770586E740F25450824206D89A0C02F126
:1030B0007D07FF0002F17C057BE74FF47E777E25DC
:1030C00077E743F001016160136063E78804002043
:1030D0009004002094080020F00F002070B50D46E9
:1030E0000023074C0646114628462360FFF753FC91
:1030F000431C00D070BD2368002BFBD0336070BD33
:103100005C2100202DE9F84310F538761ED0884662
:1031100007464FF000097568B468013D10D4A389D3
:10312000013D012B08D9B4F90E30013304D02146FA
:103130003846C04749EA00096B1C04F16804EED127
:103140003668002EE7D14846BDE8F883B1464846C8
:10315000BDE8F883704700BF704700BF704700BFED
:10316000704700BF70B50C46B1F90E1090B0002941
:1031700015461E4614DB01AAFFF7B0FF00280FDB3F
:10318000029A4FF4806302F47042A2F50052B2FA40
:1031900082F24FF40060520932602B6010B070BDB3
:1031A0000023A289336012F0800004D04022184628
:1031B0002A6010B070BD4FF480632B6010B070BDFA
:1031C0008A890B46920706D5012103F14302596112
:1031D0001A601A617047F0B583B001AB6A460C46BD
:1031E0000646FFF7BFFF00990546304600F032F86B
:1031F000B4F90C30D8B19DE80600154F43F08003B8
:10320000F763A3812060206161611AB92B43A38118
:1032100003B0F0BD3046B4F90E1004F045FCA0B187
:10322000A38923F0030343F001031BB2EEE79A05E1
:10323000EED4012123F0030304F1430243F002031F
:10324000A381616122602261E2E7B4F90C30DDE71D
:103250009D2D00082DE9F04F01F10B06162E83B0CD
:10326000054640F29E8036F0070600F1BD80B1426F
:1032700000F2BA8000F084FBB6F5FC7FC0F08582D6
:10328000730A00F0B880042B00F26C81B30903F1DB
:10329000390003F1380EC100B84F39444C68083981
:1032A000A14206D10CE0002A80F2AB80E468A14282
:1032B00006D0636823F003039A1B0F2AF3DD7046E0
:1032C0003C69DFF8CCE2744500F09E81636823F02E
:1032D00003039A1B0F2A00F38381002AC7F814E026
:1032E000C7F810E080F29180B3F5007F80F0548140
:1032F0000122DB0879684FEAA30C134457F83380A6
:1033000002FA0CF207EBC30C0A43ACF10801E160CE
:10331000C4F808807A6047F83340C8F80C400124AC
:1033200083109C4094427DD8144206D120F00300C3
:103330006400144200F10400FAD007EBC009CC4647
:103340008046DCF80C309C4507D15FE1002A80F212
:103350006D81DB689C4500F05981596821F00301BB
:103360008A1B0F2AF2DDDC68D3F808C046F001089A
:1033700028461E4442F00105C3F80480CCF80C40F6
:10338000C4F808C07E613E61C6F80CE0C6F808E0EB
:1033900075605A50009300F0F9FA009B03F108049D
:1033A0001EE0102920D800F0EBFA10261823022086
:1033B000724F3B445C68A3F10802944200F02F81F5
:1033C0006368E16823F0030323445A68A66842F067
:1033D0000102F16028468E605A6000F0D7FA083486
:1033E000204603B0BDE8F08F00240C2320462B605C
:1033F00003B0BDE8F08F40204FF400714FF03F0E56
:103400004AE723445A68E168E0E723445A682846BB
:1034100042F001025A60083400F0B8FA204603B0C6
:10342000BDE8F08FBC68636823F00308B04504D39F
:10343000A8EB06030F2B00F38580DFF85891504B63
:10344000D9F800201B680132334404EB080A00F06D
:10345000548103F580530F3323F47F6B2BF00F0B54
:103460005946284600F002FB411C024600F0FB8052
:10347000824500F2F680434B19685944196000F008
:103480004C81D9F8000001301BBFA2EB0A0A51445D
:10349000C9F80020196012F0070100F01481C1F191
:1034A0000800C1F580510244083102EB0B09C9F351
:1034B0000B09A1EB0909494628460193009200F047
:1034C000D5FA431C9DE80C0000F04281801A484464
:1034D00040F001001968BC424944BA60196050606C
:1034E00017D0B8F10F0F40F2FA804FF0050C626868
:1034F000A8F10C0020F0070002F0010204EB000E1E
:1035000002430F286260CEF804C0CEF808C000F273
:1035100016811D4BBC681A68914288BF19601B4B0D
:103520001A689142626888BF196022F003029642CD
:10353000A2EB060301D80F2B04DC284600F026FA84
:1035400000244DE746F0010243F001032644626087
:103550002846BE600834736000F018FA204603B0B5
:10356000BDE8F08F142B70D9542B00F2A280330BDE
:1035700003F16F0003F16E0EC1008DE68804002098
:10358000F00F0020C00F0020E80F0020EC0F0020FB
:1035900090040020900800205A0A042A5BD9142ABB
:1035A00000F2AE8002F15C01C9005B3207EB010C56
:1035B0007958ACF1080C8C4500F088804A6822F0FC
:1035C0000302934273D289688C45F7D1DCF80C3042
:1035D0007A68E360C4F808C09C60CCF80C409EE6B2
:1035E00046F0010C42F001012644C4F804C028460C
:1035F0007E613E61C6F80CE0C6F808E07160E250FA
:1036000000F0C4F90834EBE67A6888E608F10108AE
:1036100018F0030F0CF1080C7FF493AE2DE0DC687A
:10362000A34208BF02303FF44BAEC9E61C46194422
:103630004A68DB6854F8086F42F001024A60284685
:10364000F3609E6000F0A2F9CAE603F15C0003F1AA
:103650005B0EC10020E69A0902F13901C900383237
:10366000A4E7BC4254D0BC68626822F003025EE763
:1036700059F80839994540F0868010F0030F00F1A1
:10368000FF30F5D17B6823EA04037B6064009C4231
:103690003FF6C8AE002C3FF4C5AE1C4240467FF456
:1036A0004CAE64001C4200F10400FAD045E68C46A2
:1036B0008CE7B3F5AA7F15D8F30B03F1780003F17B
:1036C000770EC100E8E54FF48051EEE601217B68FA
:1036D000921001FA02F21A437A60634679E70123F5
:1036E00053602AE740F25452934222D8B30C03F1BC
:1036F0007D0003F17C0EC100CEE503F1100BAFE6B7
:10370000542A29D81A0B02F16F01C9006E324DE715
:10371000204B196859441960B3E6CAF30B0000281E
:103720007FF4AFAE08EB0B03BA6843F001035360BC
:10373000EFE67F204FF47E714FF07E0EACE504F192
:10374000080128460093FFF7E3FB009B1968E0E6B9
:1037500001204FF00009BDE6B2F5AA7F05D8DA0BCB
:1037600002F17801C900773220E740F254518A42D1
:1037700005D89A0C02F17D01C9007C3216E74FF49E
:103780007E717E2212E77B6880E7F00806F108036D
:103790000EE600BFC00F0020032A70B422D940EA11
:1037A00001039B0711D003780C78A3421DD10A4472
:1037B000013105E010F8013F11F8014BA34214D18B
:1037C0009142F7D1002070BC70470D6806680C4626
:1037D000AE42034601F1040100F1040008D1043AAD
:1037E000032AF2D8002ADED1ECE7181B70BC704720
:1037F00021461846D7E700BF844641EA000313F08C
:10380000030349D1403A23D30B6803604B684360FC
:103810008B688360CB68C3600B6903614B6943614C
:103820008B698361CB69C3610B6A03624B6A436234
:103830008B6A8362CB6AC3620B6B03634B6B43631C
:103840008B6B8363CB6BC36340304031403ADBD238
:1038500030320BD30B6803604B6843608B68836026
:10386000CB68C36010301031103AF3D20C3205D35C
:1038700051F8043B40F8043B043AF9D2043208D032
:10388000D2071CBF11F8013B00F8013B01D30B88A4
:1038900003806046704700BF082A13D38B07B1D05E
:1038A00010F00303AED0C3F10403D21ADB071CBF30
:1038B00011F8013B00F8013BA4D331F8023B20F89A
:1038C000023B9FE7043AD9D3013A11F8013B00F8D3
:1038D000013BF9D20B7803704B7843708B7883707F
:1038E0006046704770B4860746D0541E002A41D007
:1038F000CAB2034602E014F1FF343BD303F8012BB4
:103900009D07F8D1032C2ED9CDB245EA05250F2C01
:1039100045EA054519D9264603F11002103E0F2E3F
:1039200042F8105C42F80C5C42F8085C42F8045C17
:1039300002F11002F2D8A4F1100222F00F0204F0FA
:103940000F041032032C13440DD91E462246043AAC
:10395000032A46F8045BFAD8221F22F0030204323D
:10396000134404F003042CB1C9B21C4403F8011B36
:103970009C42FBD170BC704714460346C2E700BFAF
:103980000148FFF7EBBB00BF482100200148FFF7CB
:10399000E7BB00BF482100200FB410B5074B82B031
:1039A00004AC54F8042B186823468168019401F094
:1039B00087FB02B0BDE8104004B070475C000020F7
:1039C000F0B5054689B008460C46012700F0CAF854
:1039D0000226C31920490393AB6B04AA04940590F3
:1039E000AC68079702960691019253B3636E13F089
:1039F000010FB4F90C309AB201D1900525D591048C
:103A000006D4626E43F4005322F40052A38162662E
:103A1000284601AA214603F0CDFE636E00280CBFA4
:103A20000A254FF0FF35DA0702D4A3899B0502D59A
:103A3000284609B0F0BDA06DFFF792FB284609B0FB
:103A4000F0BD2846FFF7D8F9D0E7A06DFFF786FB59
:103A5000B4F90C309AB2D2E704980008024B014640
:103A60001868FFF7ADBF00BF5C00002038B5002329
:103A7000064C054608462360FDF792FC431C00D027
:103A800038BD2368002BFBD02B6038BD5C210020A3
:103A90000EB40146F0B56FF000454FF402774FF6D3
:103AA000FF769CB021AC54F8042B0B4B029106918D
:103AB000186802A923460194ADF81470049507957F
:103AC000ADF8166000F07CF80022029B1A701CB062
:103AD000BDE8F04003B070475C00002010B50C4614
:103AE000B1F90E1004F0BCFB002803DB236D034486
:103AF000236510BDA38923F48053A38110BD00BFAB
:103B00002DE9F0410C46B1F90C101F46CB051646C5
:103B1000054607D5B4F90E100223002203F0E4FF96
:103B2000B4F90C1021F48051A1813B463246B4F91E
:103B30000E102846BDE8F04102F0FABD10B50C4663
:103B4000B1F90E1003F0D0FFA389421C0EBF23F47D
:103B5000805343F480532065A38110BDB1F90E104A
:103B600002F060BE20F0030110F00300C0F100007D
:103B700051F8043B00F1040C4FEACC0C6FF000024A
:103B80001CBF22FA0CF213434FF0010C4CEA0C2C30
:103B90004CEA0C4CA3EB0C0222EA030212EACC1210
:103BA00004BF51F8043B0430F4D0C2F1000102EA32
:103BB0000102B2FA82F2C2F11F0200EBD20070479A
:103BC0002DE9F04FC3B00C460B9192460F930C9029
:103BD00003F07CFF036818461A93FFF7C3FFA3891D
:103BE0001990190603D52369002B01F035800023B5
:103BF0000DF1C809C84615931393149318931B939A
:103C000009931693179327932693CDF894909AF8D7
:103C100000305446EBB1252B02D11AE0252B03D0FE
:103C200014F8013F002BF9D1A4EB0A058DB1269BB6
:103C3000279A01332A44072BC8F800A0C8F804507B
:103C40002792269300F38A8008F10808099B2B44E9
:103C500009932378002B00F0898000234FF0FF3078
:103C60001A468DF8773019460D939B46637804F118
:103C7000010A0A900AF1010AA3F12000582800F273
:103C8000B783DFE810F04C03B503B5035403B50365
:103C9000B503B503B503B503B50359005903B5031F
:103CA00066001402B5032F02A503A503A503A5030F
:103CB000A503A503A503A503A503B503B503B50394
:103CC000B503B503B503B503B503B503B5038B025F
:103CD000D302B503D302B503B503B503B5031B0384
:103CE000B503B5032003B503B503B503B503B503A9
:103CF0003402B503B5034B02B503B503B503B503F1
:103D0000B503B503B503B503B503B50376029E034A
:103D1000D302D302D30263039E03B503B503680342
:103D2000B5037503DD018C035E03B503F201B50332
:103D30008700B503B50332030F9C236818460D9323
:103D40002346002803F104030F9304DA0D9B5B4222
:103D50000D934BF0040B9AF800308BE725AA0B99D2
:103D60000C9804F049FC40B9C8466FE7279B23B183
:103D70000C9825AA0B9904F03FFC0B9B9B8913F030
:103D8000400F099B18BF4FF0FF330993099843B0C8
:103D9000BDE8F08F1BF0200F119340F0AF810F9A18
:103DA0001BF0100F134640F09A851BF0400F00F0F7
:103DB000968500250123148804320F9200221746AD
:103DC0008DF877200A994A1C00F010822BF08002AF
:103DD000079254EA050240F00F82002940F0318436
:103DE000002B40F039851BF001030E9300F0628632
:103DF000302342AE06F8413D0A9B0E9A9342B8BF6B
:103E0000134608930023129317B1089B01330893BC
:103E1000079B13F00203109302D0089B0233089310
:103E2000079B13F0840540F010830D9B089AA3EBC9
:103E3000020BBBF1000F40F30883BBF1100F40F3FE
:103E4000B287279C43462146A8461027269A0C9CF9
:103E50000B9D06E0ABF1100BBBF1100F03F1080353
:103E600018DD0132AB481031072A2791269283E8EA
:103E70008100EFDD25AA2946204604F0BDFB00287D
:103E80007FF47BAFABF1100BBBF1100F4B462799C2
:103E9000269AE6DC45460C46984601329D4B5C442A
:103EA000072A2794269288E8080800F3C3829DF821
:103EB000777008F1080887B10121269B0C440B4458
:103EC0000DF17702072B27942693C8F80410C8F841
:103ED000002000F3CD8308F10808109B7BB102217C
:103EE000269B0C4401331EAA072B27942693C8F85F
:103EF0000410C8F8002000F3118408F10808802D90
:103F000000F004830A9B0E9A9F1A002F37DD102FB2
:103F100040F37986804D42462146B0464FF0100B63
:103F20002E46269B0C9C0B9D04E0103F102F02F1A7
:103F3000080215DD01331031072B2791269382E803
:103F40004008F2DD25AA2946204604F055FB00284A
:103F50007FF413AF103F102F4A462799269BE9DCC8
:103F600035460C464646904601333C44072B279481
:103F7000269388E8A00000F3708308F10808079BE7
:103F8000DF0500F16482269B0E9901330C44072B58
:103F90002794C8F80060C8F80410269300F3B38390
:103FA00008F10808079B5B073BD50D9B089A9D1AF3
:103FB000002D36DD102D40F321871026269B0C9F07
:103FC000DDF82CB004E0103D102D08F1080816DDD6
:103FD0000133504A1034072B2794269388E8440075
:103FE000F1DD25AA5946384604F006FB00287FF487
:103FF000C4AE103D102DC846279C269BE8DC01333B
:10400000444A2C44072B2794269388E8240008DD93
:1040100025AA0B990C9804F0EFFA00287FF4ADAEB6
:10402000279C099B0D9A08998A42ACBF9B185B1884
:104030000993002C40F0FB820023C8462693E6E556
:1040400011931BF0200340F045811BF0100240F05B
:1040500066841BF0400300F062840F9913460A4601
:1040600004320C8800250F92A8E600250F9A1193C0
:1040700016688DF87750141D002E00F0CD860A9A30
:10408000531C00F01B862946304603F043FD0028F0
:1040900000F00D87831B0A950E930F94CDF81CB08A
:1040A00023EAE373089312959DF87770ACE69AF8CB
:1040B00000300AF101042A2B00F0C287A3F130007E
:1040C0000928A24600F2188700231C461AF8013B73
:1040D00004EB840400EB4404A3F130000928F5D973
:1040E0000A94C9E54BF0800B9AF80030C2E54BF01A
:1040F000100B1BF0200F11933FF451AE0F9C0734AF
:1041000024F0070303F10802D3E900450F920123CD
:1041100054E600BFEC9E0008FC9E00081193002AA4
:1041200040F0AD87BE4B1BF0200F189340F0E780A6
:104130000F9A1BF0100F134640F0D8831BF0400F6E
:1041400000F0D4830025043314880F931BF0010F73
:1041500000F0E38054EA050300F0DF8030239DF88F
:1041600044208DF878308DF879204BF0020B022333
:1041700024E601221193002311460F980892026849
:104180001F468DF877300A931293031DCDF81CB0AB
:104190000E918DF8A0200F9328AE39E61193002AD6
:1041A00040F084874BF0100B1BF0200F40F075841B
:1041B0000F9A1BF0100F134640F09D831BF0400F29
:1041C00000F09983B2F900400433E5170F932246BB
:1041D0002B46002A73F10003C0F298830A999DF8D8
:1041E00077704A1C4FF001037FF4F0AD54EA0502EA
:1041F00000F02982CDF81CB0012B00F00E83022BB9
:1042000040F09C824E461898230943EA0573290919
:1042100004F00F020D461C46835C06F8013D54EA8B
:104220000503F1D1A9EB06030E93E5E51193002AEE
:1042300040F038870F9C1BF0080F04F1070400F0D2
:10424000CF8424F0070303F108020F921A685B6819
:1042500015921493149B159D23F000442846214683
:104260004FF0FF326F4B05F043F8002840F03484E4
:10427000284621464FF0FF326A4B05F01BF8002814
:1042800040F02A8415A80DC8149905F009F80028F3
:1042900040F0D4859DF8777003231A4608930023D5
:1042A000614E19460A93614B0E92119A2BF08000D1
:1042B00007901291472AD8BF1E46A5E54BF0080B80
:1042C0009AF80030D6E44BF0100B11931BF020034A
:1042D0003FF4BBAE0F9C073424F0070303F1080240
:1042E000D3E900450F92002368E51193002A40F0BE
:1042F000C2864F4B1BF0200F18933FF419AF0F9C51
:104300001BF0010F04F1070424F0070303F1080276
:104310000F92D3E900457FF41DAF02234EE59AF8D2
:10432000003000297FF4A6AC01222021A2E44BF04A
:10433000010B9AF800309DE49AF8003001222B21FD
:1043400098E44BF0200B9AF8003093E44BF0400BCC
:104350009AF800308EE49AF800306C2B03BF9AF87C
:1043600001304BF0200B0AF1010A4BF0100B81E4F5
:10437000002A40F07C861BF0200F40F052841BF096
:10438000100F40F038841BF0400F00F034840F9A77
:10439000136804320F92BDF824201A8037E4782382
:1043A00030220F988DF879301193031D0F93204B15
:1043B000046818934BF0020B8DF878200025022337
:1043C000FCE41193002A3FF4EFAE8DF87710EBE692
:1043D00000200446A3F130001AF8013B04EB8404EA
:1043E00000EB4404A3F130000928F5D90D9443E40F
:1043F0001193002A40F04A86119A002A3FF4B6AC85
:10440000002301211F4608918DF8A020CDF81CB093
:104410008DF877300A9312930E9128AEF8E400BF1E
:10442000B89E0008FFFFEF7FAC9E0008A89E000822
:10443000CC9E000825AA0B990C9804F0DDF8002802
:104440007FF49BACC8469DF87770279C33E5119BA1
:10445000652B40F39A8015A80DC8149904F016FF37
:10446000002800F093810121269BB54A0B440C449F
:10447000072B27942693C8F80410C8F8002000F3EF
:10448000C68308F108081F9B139A279C934203DBFD
:10449000079BDD077FF586AD269B199901331A9A94
:1044A0000C44072BC8F80020C8F804102794269362
:1044B00000F3C48308F10808139B5E1E002E7FF7EB
:1044C00071AD102E40F3758522461027269B9D4D19
:1044D000DDF830B00B9C05E008F10808103E102E06
:1044E00040F3258201331032072B2792269388E868
:1044F000A000F1DD25AA2146584604F07DF80028E9
:104500007FF43BACC846279A269BE7E70D9B089AA9
:104510009F1A002F7FF7F6AC102F40F3A884894D27
:1045200042462146B0464FF0100B2E46269B0C9C6F
:104530000B9D04E0103F102F02F1080215DD01333E
:104540001031072B2791269382E84008F2DD25AA37
:104550002946204604F050F800287FF40EAC103FA6
:10456000102F4A462799269BE9DC35460C464646DD
:10457000904601333C44072B2794269388E8A000FB
:1045800000F39E8208F10808BCE4139B012B40F362
:104590004F820123269F1C441F44072F2794C8F8ED
:1045A00000602697C8F8043000F35F8208F108081D
:1045B000199A01371A9B1444072F27942697C8F895
:1045C0000030C8F8042000F35C8208F1080815A840
:1045D0000DC8149904F05AFE139B002840F0418145
:1045E000013B013701361C44072FC8F800602697AD
:1045F0002794C8F8043000F3668108F108081B9A74
:104600000137144421AB072F27942697C8F80420BC
:10461000C8F800307FF7C4AC25AA0B990C9803F0BA
:10462000EBFF00287FF4A9ABC846279CBAE425AA73
:104630000B990C9803F0E0FF00283FF4FDACFFF766
:104640009CBBDDF81CB0012B00F07E81022B71D1E8
:10465000CDF81CB000240025D4E525AA0B990C98B0
:1046600003F0CAFF00287FF488ABC846279C86E485
:1046700025AA0B990C9803F0BFFF00287FF47DABAF
:10468000C846279C29E40120269B2D4A0344044464
:10469000072B27942693C8F80400C8F8002040F39D
:1046A000D88225AA0B990C9803F0A6FF00287FF466
:1046B00064ABC8461F99279C29B9139B1BB9079B5C
:1046C000D8077FF56FAC1998269B02460133224428
:1046D0001A9C072B2792C8F80040C8F804002693BC
:1046E00000F3318408F108080029C0F20984139905
:1046F00001338C18072B27942693C8F80060C8F85C
:1047000004107FF74DAC25AA0B990C9803F074FFA9
:1047100000287FF432AB279CC84643E425AA0B99B6
:104720000C9803F069FF00287FF427ABC846279C4C
:10473000FFF7E5BB00240025CDF81CB0494604E096
:10474000E89E0008FC9E00083146E20842EA4572F5
:10475000E80804F0070305461446303354EA05021E
:1047600001F8013C01F1FF36EED1079AD2077FF53F
:1047700059AD302B3FF456AD3023023906F8013CD9
:10478000A9EB01030E930E46FFF736BB1F990029D4
:104790007FF779AF129B139A9342A8BF1346002B61
:1047A0001F460BDD269B3C440133072B279488E8EA
:1047B000C000269300F3FB8208F10808129B002F2B
:1047C000A8BFDB1B002B1F4640F3D780102B40F304
:1047D0003484BA4D42462146B0464FF0100B2E4667
:1047E000269B0C9C0B9D04E00832103F102F40F3D9
:1047F000B58001331031072B2791269382E84008BA
:10480000F2DD25AA2946204603F0F6FE00287FF4B3
:10481000B4AA4A462799269BE7E7002D08BF0A2C31
:10482000C0F090804E46204629460A22002304F01C
:104830009DFD303206F8012D2046294600230A222C
:1048400004F094FD04460D4654EA0503EBD1A9EBB0
:1048500006030E93FFF7D0BA0A9B4E460E93FFF75E
:10486000CBBA5E1E002E7FF7CAAE102E40F3E38354
:1048700022464FF0100B914D0C9C04E0103E102E80
:1048800008F1080815DD01371032072F2792269707
:1048900088E82008F2DD25AA0B99204603F0ACFE3B
:1048A00000287FF46AAA103E102EC846279A269F39
:1048B000E9DC144601373444072F2794269788E80B
:1048C00060007FF79AAE25AA0B990C9803F094FE2E
:1048D00000287FF452AA279C269FC8468FE6043200
:1048E0001C68002501230F92FFF768BA1C68043387
:1048F0000F9300252AE41C680433E51722460F9322
:104900002B46002A73F10003BFF668AC2D276442E2
:1049100065EB45058DF877700123FFF753BA0F99C2
:1049200000250A4604320C680F92FFF747BA144676
:1049300001333444072B2794269388E860007FF7DF
:104940002FABE0E6DDF81CB0012342AE3034CDF8E9
:104950001CB006F8414D0E93FFF74EBA35460C4693
:104960004646904601333C44072B2794269388E81B
:10497000A00000F3468208F108081F9A139B9A4290
:1049800045DB079BD90742D4139B12989A1A1D1A2C
:104990009542A8BF1546002D0EDD2699064401312B
:1049A0002C440729C8F800602794C8F804502691C1
:1049B00000F3168208F10808002DB4BF1646561BF6
:1049C000002E7FF7EFAA102E40F3F3822246102725
:1049D000269B3A4DDDF830B00B9C04E008F1080846
:1049E000103E102EA3DD01331032072B27922693A1
:1049F00088E8A000F2DD25AA2146584603F0FCFD18
:104A000000287FF4BAA9C846279A269BE8E7269B88
:104A1000199801331A990444072B2794C8F80010F9
:104A2000C8F80400269300F3CF8108F10808ABE72B
:104A3000079BDA073FF5ADAD0123269F1C441F44B9
:104A4000072F2794C8F800602697C8F804307FF72E
:104A5000D4AD25AA0B990C9803F0CEFD00287FF465
:104A60008CA9C846279C269FC9E525AA0B990C98B6
:104A700003F0C2FD00287FF480A9C846279C269F2A
:104A800096E525AA0B990C9803F0B6FD00287FF453
:104A900074A9C846279C269F99E50F9C073424F0EB
:104AA000070404F10801D4E900230F9114461D46C0
:104AB000FFF78FBB4E46FFF79FB900BFFC9E000873
:104AC00025AA0B990C9803F097FD00287FF455A9AF
:104AD000C846279CFFF716BA159C22462046149C10
:104AE0002346214604F004FC002840F073820A9B10
:104AF0000133119B23F020030E9300F09C81472B80
:104B000000F0D6804BF480730793149B1F1E159BF7
:104B10000893B7BF3B46002303F100472D231093B2
:104B2000119B662B00F09081462B00F0A4800220A0
:104B30000E9B23A9452B0ABF0A9B0A9D5D1C8DE88D
:104B40002100049120A81FA93B460390089A0291D6
:104B50000C9801F00DFF119B0646672B40F0BA81BF
:104B60001BF0010F00F023827419169A0898179B06
:104B7000394604F08BFB002840F02481239BA3429C
:104B800006D230215A1C23921970239B9C42F9D8DB
:104B90009B1B13930E9B472B00F0A280119B652B50
:104BA00040F3A781119B662B1F9B129300F071812C
:104BB000139B129A1946914200F35D811BF0010F7D
:104BC00040F0F08122EAE273089367230E9211937A
:104BD000109B002B7DD10A939DF87770FFF714B9D5
:104BE00024F00704236815936368149304F1080301
:104BF0000F93FFF72FBB0F9A136804320F92099A95
:104C00001A60FFF704B8269BAF4DFFF7ADB925AA90
:104C10000B990C9803F0F0FC00287FF4AEA8C8466E
:104C200031E40F9A134604330F93099B1168DD1783
:104C30001A462B46C1E90023FEF7E9BF25AA0B99C6
:104C40000C9803F0D9FC00287FF497A8C846279C4D
:104C500032E408F108082FE540210C98FEF7FAFA33
:104C60000B9A10601061002800F0148240230B9A08
:104C70005361FEF7BCBF03200A9C23A98DE81100F5
:104C8000049120A81FA90390089A3B4602910C9812
:104C900001F06EFE25460646119B7419462B7FF4E3
:104CA00064AF3378302B00F087811F9D2C445CE784
:104CB0000A9B002B08BF01230A9323E730460A957D
:104CC000FEF750FF0F940E90CDF81CB00346FFF78F
:104CD000E7B92D2700238DF877700A93FFF795B871
:104CE0001F9B1A461293033304DB0A9B1946914219
:104CF000BFF65EAF119B023B1193129B9DF84420BF
:104D0000013B002B8DF88420B4BF2D222B221F9352
:104D1000B8BF129B8DF88520B8BFC3F10103092BE2
:104D200040F31F810DF193000146684C00E01146ED
:104D300084FB0352DD17C5EBA20505EB8502A3EB4F
:104D400042023032092D01F8012C2B4601F1FF32CD
:104D5000EDDC30330239DCB2884202F8014C40F21B
:104D600092810DF18601134601E013F8014B834255
:104D700001F8014BF9D101339B1A0DF1860213445E
:104D800021AA9B1A139A1B93012A13440E9340F3F2
:104D900048810E9B199A13440E9323EAE3730893F8
:104DA0000023129314E7279C269AFFF776B825AACA
:104DB0000B990C9803F020FC00287EF4DEAFC84667
:104DC000279CFBE42346E3E625AA0B990C9803F005
:104DD00013FC00287EF4D1AFC8461F9A279CD3E568
:104DE00025AA0B990C9803F007FC00287EF4C5AFA8
:104DF0001F9A139BC846279C9A1ADDE5269BFFF74E
:104E0000FEB825AA0B990C9803F0F6FB00287EF457
:104E1000B4AFC846279CB0E50A9B3746062B28BF8F
:104E200006230A96129608930F94CDF81CB00E93A1
:104E3000274EFEF7E9BF06230A9363E62D231F469C
:104E40008DF87730FFF728BA03200A9C23A98DE854
:104E50001100049120A81FA90390089A3B460291D3
:104E60000C9801F085FD25460646041919E7269B96
:104E7000154DFFF77EBB199A139B1344129A0E939C
:104E8000002A40F3C78023EAE37308936723119352
:104E90009EE6002B40F3E1800A9A002A40F0B080A1
:104EA0001BF0010F40F0AC8008930E9390E60A9B34
:104EB0000F9408930E930A90CDF81CB012909DF8B1
:104EC0007770FEF7A1BF00BFFC9E000867666666AC
:104ED000E09E0008119B472B7FF446AE1BF0010FAC
:104EE0007FF4DAAE239B9B1B13930E9B472B3FF45F
:104EF000F7AE1F9B129300E700200A90FEF7BCBE9E
:104F00004F42103135DA10246A4DDDF830B004E03C
:104F100008F10808103F102F2CDD01331032072B49
:104F200027922693C8F80050C8F80440F0DD25AA5F
:104F30000B99584603F060FB00287EF41EAFC8466C
:104F4000279A269BE6E725AA0B990C9803F054FBB9
:104F500000287EF412AFC8461F99279A269BFFF7B8
:104F6000C3BB302213448DF887308DF8862022ABE6
:104F700006E7504D01333A44072B88E8A0002792FA
:104F8000269308F108087FF7B2AB25AA0B990C9875
:104F900003F032FB00287EF4F0AEC846279A269B29
:104FA000FFF7A5BB129B199A13440E936BE7239B43
:104FB000EEE5269B3F4DBBE4169A0898179B3946B1
:104FC00004F064F900287FF470AEC5F101051F9567
:104FD0002C44CAE5149B384E002BBEBF2D231F4620
:104FE0008DF877304FF003031A4608934FF0000313
:104FF000A8BF9DF8777019460A93304BFFF754B954
:10500000129B199A13440A9A1A4422EAE2730E92E6
:105010000893DDE5129B0E9AC3F101031A4413466F
:10502000C3E71BF0010312937FF4B3AE0E9B23EA98
:10503000E3730893CCE51F4D3CE4269B1D4D91E4A2
:105040000F9D9AF801302868A24640EAE0700A9065
:10505000284604300F90FEF70DBE0A9B13B91BF0D3
:10506000010F02D0199B0133CDE701231CE78DF816
:105070007710FFF780B98DF87710FFF73AB98DF800
:105080007710FFF74FB80DF1860379E68DF87710AA
:10509000FFF7B2B94FF0FF320C2309920C9A13605C
:1050A000FEF774BE8DF87710FFF7C4B88DF877104F
:1050B000FFF778B8FC9E0008B49E0008B09E000878
:1050C0002DE9F04FC1B01D468A469146044608902E
:1050D00002F0FCFC03680E9518461593FEF742FD9E
:1050E00014901CB1A36B002B00F06682DAF86430D8
:1050F000BAF90C2013F0010F93B202D1990540F1D7
:105100007C829F040AD4DAF8641042F4005321F43C
:105110000051AAF80C30CAF864109BB21E0740F187
:105120002A82DAF81020002A00F0258203F01A0201
:105130000A2A00F0458200230DF1C0081393119351
:105140001293189319930B93169317932593249303
:10515000CDF88C80CDF828A099F800304C46EBB102
:10516000252B02D11AE0252B03D014F8013F002B88
:10517000F9D1A4EB09058DB1249B259A01332A446A
:10518000072BC8F80090C8F804502592249300F328
:10519000088208F108080B9B2B440B932378002B03
:1051A00000F00E8400231A468DF86F3019460C93D8
:1051B0009B464FF0FF33667804F10109099309F12A
:1051C0000109A6F12003582B00F2D183DFE813F088
:1051D0006102CF03CF036902CF03CF03CF03CF0315
:1051E000CF03CF031D023103CF032A021103CF03E4
:1051F0002C036E026E026E026E026E026E026E0270
:105200006E026E02CF03CF03CF03CF03CF03CF03D2
:10521000CF03CF03CF03CF037E02C502CF03C50266
:10522000CF03CF03CF03CF030C03CF03CF036F0014
:10523000CF03CF03CF03CF03CF035900CF03CF0357
:105240004703CF03CF03CF03CF03CF03CF03CF0356
:10525000CF03CF03CF034D036103C502C502C502CF
:1052600067036103CF03CF036C03CF03790371009E
:1052700036035C02CF038E03CF035B00CF03CF0363
:1052800034024BF0100B1BF0200F40F065830E9A98
:105290001BF0100F134640F0EC851BF0400F00F0A0
:1052A000E88514880432002501230E9214E04BF0A7
:1052B000100B1BF0200340F03A831BF0100240F06B
:1052C000DF851BF0400300F0DB850E9913460A468C
:1052D000002504320C880E92002292468DF86F2031
:1052E00009994A1C00F019822BF08002069254EAB8
:1052F000050240F01882002940F07F84002B40F026
:105300007F851BF001030D9300F0BA86302340AF78
:1053100007F8413D099B0D9A9342B8BF1346079386
:1053200000231093BAF1000F02D0079B01330793BB
:10533000069B13F002030F9302D0079B02330793DF
:10534000069B13F0840540F039830C9B079AA3EB6E
:10535000020BBBF1000F40F33183BBF1100F40F3A0
:10536000AF8743461024A8462599249ADDF820A04B
:105370000A9D06E0ABF1100BBBF1100F03F108031F
:1053800018DD0132AA481031072A2591249283E8BA
:105390001100EFDD23AA2946504603F0EBF900285F
:1053A00040F08783ABF1100BBBF1100F30AB2599A8
:1053B000249AE6DC4546984601329D4B0BEB0104EE
:1053C000072A2594249288E8080800F3EB829DF8C8
:1053D0006FA008F10808BAF1000F10D00121249B3A
:1053E0000C440B440DF16F02072B25942493C8F84D
:1053F0000410C8F8002000F3548408F108080F9B3B
:105400007BB10221249B0C4401331CAA072B259459
:105410002493C8F80410C8F8002000F34E8408F163
:105420000808802D00F04783099B0D9AA3EB020A20
:10543000BAF1000F3CDDBAF1100F40F3F0867D4D5C
:1054400042462146B0464FF0100B2E46249B089C46
:105450000A9D06E0AAF1100ABAF1100F02F1080243
:1054600017DD01331031072B2591249382E8400882
:10547000F0DD23AA2946204603F07CF9002840F0FD
:105480001883AAF1100ABAF1100F30AA2599249BAB
:10549000E7DC35460C464646904601335444072B1C
:1054A0002594249388E8200400F3B38308F10808C6
:1054B000069BDB0500F19D82249B0D9901330C4472
:1054C000072B2594C8F80070C8F80410249300F343
:1054D000DD8308F10808069B59073CD50C9B079A09
:1054E0009D1A002D37DD102D40F35B871026249B7D
:1054F000089FDDF828A004E0103D102D08F10808F1
:1055000017DD01334A4A1034072B2594249388E889
:105510004400F1DD23AA5146384603F02BF9002858
:1055200040F05682103D102D0DF1C008259C249BA3
:10553000E7DC01333E4A2C44072B2594249388E86A
:10554000240008DD23AA0A99089803F013F900281B
:1055500040F05083259C0B9B0C9A07998A42ACBF64
:105560009B185B180B93002C40F03C8300230DF13B
:10557000C0082493F0E55146089801F0EFF80028A0
:1055800038D0DAF86430DD0704D4BAF80C309C0562
:1055900040F11E864FF0FF330B930B9841B0BDE8EE
:1055A000F08F23AA0A99089803F0E4F8002840F045
:1055B00021830DF1C008EEE50898FDF71DFC95E587
:1055C000BAF90E20002AFFF6B6ADDAF86420D0074B
:1055D00005D4990503D4DAF85800FDF7C1FD2B4630
:1055E0004A465146089801F05FF80B900B9841B07D
:1055F000BDE8F08FBAF80C3098E5DAF85800FDF7FE
:10560000ADFDBAF90C2093B27BE50E9C23681846D9
:105610000C932346002803F104030E9304DA0C9B39
:105620005B420C934BF0040B99F80060C7E500BF98
:105630000C9F00081C9F0008002A41F01A80C14BF3
:1056400018931BF0200F40F0DD840E9A1BF0100F12
:10565000134640F01D841BF0400F00F01984002514
:10566000043314880E931BF0010F00F05F8354EA9B
:10567000050300F05B8330238DF871608DF8703086
:105680004BF0020B022327E64BF0200B99F8006049
:1056900095E599F8006000297FF491AD0122202161
:1056A0008DE54BF0010B99F8006088E50023184662
:1056B000A6F1300319F8016B00EB800003EB40000A
:1056C000A6F13003092BF5D90C907AE5002A40F0B9
:1056D000D8874BF0100B1BF0200F40F0C2840E9ABD
:1056E0001BF0100F134640F0D9831BF0400F00F061
:1056F000D583B2F900400433E5170E9322462B46BA
:10570000002A73F10003C0F2CB8409999DF86FA0C1
:105710004A1C4FF001037FF4E7AD54EA050200F0A4
:105720006E82CDF818B0012B00F04C83022B40F0B4
:10573000D482189830AF230943EA0573290904F08D
:105740000F020D461C46835C07F8013D54EA050331
:10575000F1D130ABDB1B0D93DCE5002A40F08D87E7
:105760000E9C1BF0080F04F1070400F0268524F0BE
:10577000070303F108020E921A685B6813921293F2
:10578000129B139D23F00044284621464FF0FF3220
:105790006D4B03F0ADFD002840F08C842846214677
:1057A0004FF0FF32684B03F085FD002840F0828403
:1057B000169A1398179B129903F072FD002840F077
:1057C00025859DF86FA003231A46079300235F4F9A
:1057D000194609935E4B2BF0800006900D921091B4
:1057E000472ED8BF1F469DE54BF0080B99F8006087
:1057F000E5E499F8006009F101002A2E00F0258700
:10580000A6F13003092B814698BF002000F29F8645
:1058100019F8016B00EB800003EB4000A6F13003A8
:10582000092BF5D90990CCE44BF0800B99F8006076
:10583000C5E499F8006001222B21C0E430237826CA
:105840000E998DF870300B1D0E933E4B0C6818931B
:105850004BF0020B8DF87160002502233CE5002A15
:1058600040F017873B4B1893EBE6012200231146CB
:105870000E98079202689A468DF86F30099310933C
:10588000031DCDF818B00D918DF898200E9326AF1A
:105890004EE5002A3FF41FAF8DF86F101BE74BF069
:1058A000400B99F800608AE499F800606C2E03BF01
:1058B00099F801604BF0200B09F101094BF0100B36
:1058C0007DE4002A40F0CE861BF0200F40F0C88413
:1058D0001BF0100F5ED11BF0400F5BD00E9A1368C7
:1058E00004320E92BDF82C201A8035E400250E9A61
:1058F0008DF86F501768141D002F00F05585099A18
:10590000531C00F0D2842946384602F003F90028DF
:1059100000F0C985C31B09950D930E94CDF818B0FE
:1059200023EAE373079310959DF86FA0FAE40E9CA9
:10593000073424F0070303F10802D3E900450E926F
:105940000023C9E4CC9E0008FFFFEF7FAC9E000857
:10595000A89E0008B89E00080E9C073424F0070398
:1059600003F10802D3E900450E920123B4E4002AB2
:1059700040F08B8626B3002301229A4607928DF8C9
:105980009860CDF818B08DF86F30099310930D9290
:1059900026AFCDE40E9A136804320E920B9A1A6069
:1059A000FFF7DABB23AA0A99089802F0E3FE002861
:1059B00040F020819DF86FA00DF1C008259C0AE5FC
:1059C000259BDDF828A0002B40F0B7850023249309
:1059D000DAF8643013F0010FBAF80C3002D19A05EE
:1059E00040F16F825B063FF5D5AD0B9841B0BDE845
:1059F000F08F652E40F3A480169A1398179B129986
:105A000003F044FC002800F094810121249BB44A57
:105A10000B440C44072B25942493C8F80410C8F8B1
:105A2000002000F3008408F108081D9B119A259CB2
:105A3000934203DB069BDF077FF54DAD249B149952
:105A40000133159A0C44072BC8F80020C8F804103D
:105A50002594249300F3148408F10808119B5E1E1A
:105A6000002E7FF738AD102E40F3F7811027249BCE
:105A70009C4DDDF820A0DDF828B005E008F108080D
:105A8000103E102E40F3EB8101331034072B259488
:105A9000249388E8A000F1DD23AA5946504602F07D
:105AA00069FE002840F0E9830DF1C008259C249B85
:105AB000E6E7AA468CE70C9B079AA3EB020ABAF129
:105AC000000F7FF7B1ACBAF1100F40F3A784854DFA
